:020000040800F2
:1000000048910020F9EB01087DEA01087FEA010828
:1000100081EA010883EA010885EA0108000000007E
:1000200000000000000000000000000087EA010856
:1000300089EA0108000000008BEA01088DEA010846
:10004000ADEC0108B1EC0108B5EC0108E984010848
:10005000BDEC0108C1EC0108C5EC0108C9EC0108C0
:10006000CDEC010837BD0108D5EC0108D9EC010839
:10007000DDEC0108E1EC0108E5EC0108E9EC010820
:10008000EDEC0108F1EC0108F5EC0108F9EC0108D0
:10009000FDEC010801ED010805ED010845BD010871
:1000A0000DED010811ED010815ED010819ED01082C
:1000B0001DED010821ED010825ED010829ED0108DC
:1000C0002DED010831ED010835ED010839ED01088C
:1000D0003DED01082DE9010837D7010849ED010878
:1000E0004DED010851ED010855ED010859ED0108EC
:1000F0005DED010861ED010865ED010869ED01089C
:100100006DED010813720108E1EA010879ED0108BB
:100110007DED010881ED010885ED010889ED0108FB
:100120008DED010891ED010895ED010899ED0108AB
:100130009DED0108AFD50108A5ED0108A9ED010865
:10014000ADED0108B1ED0108B5ED0108B9ED01080B
:10015000BDED0108C1ED0108C5ED0108C9ED0108BB
:10016000CDED0108D1ED0108D5ED0108D9ED01086B
:10017000DDED0108E1ED0108E5ED0108E9ED01081B
:10018000EDED0108F1ED01082DE9F04104000D004D
:10019000160027001A4800210180F6B2002E01D176
:1001A00001202BE000208046A84521DA1548D0F830
:1001B0000A00B0F5001F07D31348007850F0100074
:1001C00011490870002019E03A004FF400710D4801
:1001D000D0F80A0016F0E9FE17F500770948D0F8C4
:1001E0000A00401C0749C1F80A0018F10108DBE7C2
:1001F0000448D0F80A0017F02CFD0120BDE8F0817A
:1002000020710020486F00203771002012214843E0
:100210000100481E0029FBD1704700002DE9F04184
:100220002DED028B82B00400DFF8800EB0F90000E3
:10023000DFF8881E4618DFF8880E006850F080400E
:10024000DFF87C1E0860DFF87C0E008850F48060C8
:10025000DFF8701E0880DFF8700E007810F07F0065
:10026000DFF8641E0870DFF8640EDFF8401E0988AE
:10027000018018F0E3FADFF8580E408CB082DFF806
:10028000500ED0F80A00DFF84C1E08603000DFF88E
:10029000481E082218F028FB41F66310B06040F2B7
:1002A0000930844202D140F27770B060DFF8200E4E
:1002B000B0F92000082190FBF1F0193000EE100A8F
:1002C000B8EEC00A10EE100A3061DFF8100E90EDA3
:1002D000000AB8EE400A10EE100AF0600020070095
:1002E000032F96F24D8172B6002F1BD1DFF8F00D6F
:1002F000008850F08000DFF8E81D08801E20FFF71E
:1003000085FF8021DFF8F00D18F040FB4FF4C87036
:10031000FFF77CFFDFF8E40D008850F08000DFF885
:10032000DC1D0880012F1BD1DFF8B40D008850F0D0
:100330004000DFF8AC1D08801E20FFF767FF80211A
:10034000DFF8B40D18F022FB4FF4C870FFF75EFF22
:10035000DFF8A80D008850F04000DFF8A01D0880ED
:10036000022F1BD1DFF8980D008850F02000DFF835
:10037000901D08801E20FFF749FF8021DFF8780DCF
:1003800018F004FB4FF4C870FFF740FFDFF8740D5E
:10039000008850F02000DFF86C1D088062B6DFF89E
:1003A000680D40F27D710180DFF8600D41F6D26189
:1003B0000180DFF8540D40F68B114180DFF84C0DC1
:1003C00042F220314180DFF8400D40F65C318180FF
:1003D000DFF8380D42F290618180DFF82C0D40F695
:1003E000E641C180DFF8240D42F60E11C180DFF82E
:1003F000180D40F61E610181DFF8100D42F68821CC
:100400000181DFF8040D40F6FE614181DFF8FC0C4C
:1004100042F6F6214181DFF8F00C40F67F718181D0
:10042000DFF8E80C42F656218181DFF8DC0C40F65B
:100430009E71C181DFF8D40C42F6AA01C181DFF8B8
:10044000C80C40F65B710182DFF8C00C42F2FF512C
:100450000182DFF8B40C40F6B7614182DFF8AC0CE2
:1004600042F263214182DFF8A00C40F6B65181824E
:10047000DFF8980C41F6EF518182DFF88C0C40F6E2
:100480005F41C182DFF8840C41F6BF01C182DFF811
:10049000780C40F6B9210183DFF8700C41F2F221AB
:1004A0000183DFF8640C40F6D1014183DFF85C0C76
:1004B00040F6AE414183DFF8500C4FF4D6618183A2
:1004C000DFF8480C40F219618183DFF83C0C40F200
:1004D0006641C183DFF8340C7FF09F01C183DFF8F0
:1004E000280C40F2FF110184DFF8200CDFF8201CFB
:1004F0000184DFF8140C7FF072014184DFF80C0CEA
:10050000DFF8101C4184DFF8000CDFF80C1C81843C
:10051000DFF8F80BDFF8041C8184DFF8EC0BDFF860
:10052000001CC184DFF8E40BDFF8F81BC184DFF89E
:10053000D80BDFF8F41B0185DFF8D00BDFF8EC1BDC
:100540000185DFF8C40BDFF8E81B4185DFF8BC0B41
:10055000DFF8E01B4185DFF8B00BDFF8DC1B81859D
:10056000DFF8A80BDFF8D41B8185DFF89C0BDFF8E0
:10057000D01BC185DFF8940BDFF8C81BC185DFF8FD
:10058000880BDFF8C41B0186DFF8800BDFF8BC1B8B
:100590000186DFF8740BDFF8B81B4186DFF86C0BBF
:1005A000DFF8B01B4186DFF8600BDFF8AC1B8186FB
:1005B000DFF8580BDFF8A41B8186DFF84C0BDFF85F
:1005C000A01BC186DFF8440BDFF8981BC186DFF85B
:1005D000380BDFF8941B0187DFF8300BDFF88C1B3A
:1005E0000187DFF8240BDFF8881B4187DFF81C0B3D
:1005F000DFF8801B4187DFF8100BDFF87C1B818759
:10060000DFF8080BDFF8741B8187DFF8FC0ADFF8DE
:10061000701BC187DFF8F40ADFF8681BC187DFF8B9
:10062000E80ADFF8641BA0F84010DFF8E00ADFF802
:100630005C1BA0F84010DFF8D00A7FF40D61A0F831
:100640004210DFF8C80ADFF8481BA0F84210DFF8B4
:10065000B80ADFF8401BA0F84410DFF8B00A7FF4B6
:10066000C361A0F84410DFF8A00ADFF82C1BA0F843
:100670004610DFF8980AA021A0F84610DFF8880A93
:100680007FF4FF71A0F84810DFF8800A40F257713C
:10069000A0F84810DFF8700A7321A0F84A10DFF8BC
:1006A0006C0A40F6DF51A0F84A10DFF85C0A40F20D
:1006B000E321A0F84C10DFF8540A41F21041A0F8F1
:1006C0004C10DFF8440A4FF4A861A0F84E10DFF890
:1006D0003C0A41F6C211A0F84E10DFF82C0A40F295
:1006E0007D71A0F85010DFF8240A41F6D261A0F81D
:1006F0005010DFF8140A40F68B11A0F85210DFF802
:100700000C0A42F22031A0F85210DFF8FC0940F642
:100710005C31A0F85410DFF8F40942F29061A0F8BF
:100720005410DFF8E40940F6E641A0F85610DFF86F
:10073000DC0942F60E11A0F85610DFF8CC0940F69D
:100740001E61A0F85810DFF8C40942F68821A0F80D
:100750005810DFF8B40940F6FE61A0F85A10DFF82F
:10076000AC0942F6F621A0F85A10DFF89C0940F6D1
:100770007F71A0F85C10DFF8940942F65621A0F8CA
:100780005C10DFF8840940F69E71A0F85E10DFF877
:100790007C0942F6AA01A0F85E10DFF86C0940F669
:1007A0005B71A0F86010DFF8640942F2FF51A0F815
:1007B0006010DFF8540940F6B761A0F86210DFF866
:1007C0004C0942F26321A0F86210DFF83C0940F6C0
:1007D000B651A0F86410DFF8340941F6EF51A0F8E3
:1007E0006410DFF8240940F65F41A0F86610DFF8D6
:1007F0001C0941F6BF01A0F86610DFF80C0940F6AD
:10080000B921A0F86810DFF8040941F2F221A0F83C
:100810006810DFF8F40840F6D101A0F86A10DFF89C
:10082000EC0840F6AE41A0F86A10DFF8DC084FF49F
:10083000D661A0F86C10DFF8D40840F21961A0F876
:100840006C10DFF8C40840F26641A0F86E10DFF8C3
:10085000BC087FF09F01A0F86E10DFF8AC0840F2F2
:10086000FF11A0F87010DFF8A408DFF8A418A0F8B2
:100870007010DFF894087FF07201A0F87210DFF8B2
:100880008C08DFF89018A0F87210DFF87C08DFF809
:100890008818A0F87410DFF87408DFF88018A0F842
:1008A0007410DFF86408DFF87818A0F87610DFF825
:1008B0005C08DFF87018A0F87610DFF84C08DFF855
:1008C0006818A0F87810DFF84408DFF86018A0F87E
:1008D0007810DFF83408DFF85818A0F87A10DFF83D
:1008E0002C08DFF85018A0F87A10DFF81C08DFF8A1
:1008F0004818A0F87C10DFF81408DFF84018A0F8BA
:100900007C10DFF80408DFF83818A0F87E10DFF854
:10091000FC07DFF83018A0F87E10DFF8EC07DFF8EE
:100920002818A0F88010DFF8E407DFF82018A0F8F6
:100930008010DFF8D407DFF81818A0F88210DFF86D
:10094000CC07DFF81018A0F88210DFF8BC07DFF83A
:100950000818A0F88410DFF8B407DFF80018A0F832
:100960008410DFF8A407DFF8F817A0F88610DFF886
:100970009C07DFF8F017A0F88610DFF88C07DFF887
:10098000E817A0F88810DFF88407DFF8E017A0F870
:100990008810DFF87407DFF8D817A0F88A10DFF89E
:1009A0006C07DFF8D017A0F88A10DFF85C07DFF8D3
:1009B000C817A0F88C10DFF85407DFF8C017A0F8AC
:1009C0008C10DFF84407DFF8B817A0F88E10DFF8B6
:1009D0003C07DFF8B017A0F88E10DFF82C07DFF81F
:1009E000A817A0F89010DFF82407DFF8A017A0F8E8
:1009F0009010DFF814077FF40D61A0F89210DFF873
:100A00000C07DFF88C17A0F89210DFF8FC06DFF86F
:100A10008417A0F89410DFF8F4067FF4C361A0F8FF
:100A20009410DFF8E406DFF87017A0F89610DFF8EE
:100A3000DC06A021A0F89610DFF8CC067FF4FF7149
:100A4000A0F89810DFF8C40640F25771A0F898108B
:100A5000DFF8B4067321A0F89A10DFF8B00640F66C
:100A6000DF51A0F89A10DFF8A00640F2E321A0F8C9
:100A70009C10DFF8980641F21041A0F89C10DFF8B6
:100A800088064FF4A861A0F89E10DFF8800641F6B2
:100A9000C211A0F89E10DFF8700640F27D71A0F838
:100AA000A010DFF8680641F6D261A0F8A010DFF8C8
:100AB000580640F68B11A0F8A210DFF8500642F25B
:100AC0002031A0F8A210DFF8400640F65C31A0F813
:100AD000A410DFF8380642F29061A0F8A410DFF805
:100AE000280640F6E641A0F8A610DFF8200642F6F8
:100AF0000E11A0F8A610DFF8100640F61E61A0F84F
:100B0000A810DFF8080642F68821A0F8A810DFF840
:100B1000F80540F6FE61A0F8AA10DFF8F00542F6ED
:100B2000F621A0F8AA10DFF8E00540F67F71A0F8E2
:100B3000AC10DFF8D80542F65621A0F8AC10DFF86B
:100B4000C80540F69E71A0F8AE10DFF8C00542F669
:100B5000AA01A0F8AE10DFF8B00540F65B71A0F86E
:100B6000B010DFF8A80542F2FF51A0F8B010DFF88E
:100B7000980540F6B761A0F8B210DFF8900542F290
:100B80006321A0F8B210DFF8800540F6B651A0F856
:100B9000B410DFF8780541F6EF51A0F8B410DFF893
:100BA000680540F65F41A0F8B610DFF8600541F631
:100BB000BF01A0F8B610DFF8500540F6B921A0F843
:100BC000B810DFF8480541F2F221A0F8B810DFF8BC
:100BD000380540F6D101A0F8BA10DFF8300540F62C
:100BE000AE41A0F8BA10DFF820054FF4D661A0F8A6
:100BF000BC10DFF8180540F21961A0F8BC10DFF84E
:100C0000080540F26641A0F8BE10DFF800057FF04D
:100C10009F01A0F8BE10DFF8F00440F2FF11A0F829
:100C2000C010DFF8E804DFF8E814A0F8C010DFF81F
:100C3000D8047FF07201A0F8C210DFF8D004DFF80A
:100C4000D414A0F8C210DFF8C004DFF8CC14A0F868
:100C5000C410DFF8B804DFF8C414A0F8C410DFF83B
:100C6000A804DFF8BC14A0F8C610DFF8A004DFF871
:100C7000B414A0F8C610DFF89004DFF8AC14A0F8A4
:100C8000C810DFF88804DFF8A414A0F8C810DFF853
:100C90007804DFF89C14A0F8CA10DFF87004DFF8BD
:100CA0009414A0F8CA10DFF86004DFF88C14A0F8E0
:100CB000CC10DFF85804DFF88414A0F8CC10DFF86B
:100CC0004804DFF87C14A0F8CE10DFF84004DFF809
:100CD0007414A0F8CE10DFF83004DFF86C14A0F81C
:100CE000D010DFF82804DFF86414A0F8D010DFF883
:100CF0001804DFF85C14A0F8D210DFF81004DFF855
:100D00005414A0F8D210DFF80004DFF84C14A0F857
:100D1000D410DFF8F803DFF84414A0F8D410DFF89B
:100D2000E803DFF83C14A0F8D610DFF8E003DFF8A2
:100D30003414A0F8D610DFF8D003DFF82C14A0F894
:100D4000D810DFF8C803DFF82414A0F8D810DFF8B3
:100D5000B803DFF81C14A0F8DA10DFF8B003DFF8EE
:100D60001414A0F8DA10DFF8A003DFF80C14A0F8D0
:100D7000DC10DFF89803DFF80414A0F8DC10DFF8CB
:100D80008803DFF8FC13A0F8DE10DFF88003DFF83B
:100D9000F413A0F8DE10DFF87003DFF8EC13A0F80E
:100DA000E010DFF86803DFF8E413A0F8E010DFF8E4
:100DB00058037FF40D61A0F8E210DFF85003DFF86C
:100DC000D013A0F8E210DFF84003DFF8C813A0F852
:100DD000E410DFF838037FF4C361A0F8E410DFF813
:100DE0002803DFF8B413A0F8E610DFF82003A021F1
:100DF000A0F8E610DFF810037FF4FF71A0F8E81008
:100E0000DFF8080340F25771A0F8E810BE487321DC
:100E1000A0F8EA10BD4840F6DF51A0F8EA10BA4841
:100E200040F2E321A0F8EC10B84841F21041A0F8DC
:100E3000EC10B5484FF4A861A0F8EE10B34841F6A5
:100E4000C211A0F8EE10B04840F27D71A0F8F01089
:100E5000AE4841F6D261A0F8F010AB4840F68B11D5
:100E6000A0F8F210A94842F22031A0F8F210A648EA
:100E700040F65C31A0F8F410A44842F29061A0F86A
:100E8000F410A14840F6E641A0F8F6109F4842F65B
:100E90000E11A0F8F6109C4840F61E61A0F8F8105C
:100EA0009A4842F68821A0F8F810974840F6FE616B
:100EB000A0F8FA10954842F6F621A0F8FA109248E8
:100EC00040F67F71A0F8FC10904842F65621A0F839
:100ED000FC108D4840F69E71A0F8FE108B4842F63B
:100EE000AA01A0F8FE10884840F65B71A0F8001136
:100EF000864842F2FF51A0F80011834840F6B761DE
:100F0000A0F80211814842F26321A0F802117E4844
:100F100040F6B651A0F804117C4841F6EF51A0F814
:100F20000411794840F65F41A0F80611774841F670
:100F3000BF01A0F80611744840F6B921A0F80811C5
:100F4000724841F2F221A0F808116F4840F6D10131
:100F5000A0F80A116D4840F6AE41A0F80A116A489F
:100F60004FF4D661A0F80C11684840F21961A0F85E
:100F70000C11654840F26641A0F80E1163487FF0FD
:100F80009F01A0F80E11604840F2FF11A0F8101167
:100F90005E485F49A0F810115B487FF07201A0F82D
:100FA00012115A485B49A0F8121157485A49A0F843
:100FB000141156485949A0F8141153485849A0F83B
:100FC000161152485749A0F816114F485649A0F833
:100FD00018114E485549A0F818114B485449A0F82B
:100FE0001A114A485349A0F81A1147485249A0F823
:100FF0001C1146485149A0F81C1143485049A0F81B
:101000001E1142484F49A0F81E113F484E49A0F812
:1010100020113E484D49A0F820113B484C49A0F80A
:1010200022113A484B49A0F8221137484A49A0F802
:10103000241136484949A0F8241133484849A0F8FA
:10104000261132484749A0F826112F484649A0F8F2
:1010500028112E484549A0F828112B484449A0F8EA
:101060002A112A484349A0F82A1127484249A0F8E2
:101070002C1126484149A0F82C1123484049A0F8DA
:101080002E1122483F49A0F82E111F483E49A0F8D2
:1010900030111E483D49A0F830111B487FF40D6106
:1010A000A0F8321119483A4902E000BF207100202F
:1010B000A0F832111448374914E000BFD469002069
:1010C00008200140180C02403771002022710020D6
:1010D000486F002094000020C86F00204C20014081
:1010E00018080240A0F8341108487FF4C361A0F842
:1010F00034110548284951E0003001401A080240E7
:10110000181002401A100240E8000020081D0020BC
:10111000A9F8FFFF21F2FFFF1DFDFFFFF0EBFFFF2E
:10112000C0FAFFFF3EE6FFFF83F8FFFF2EE1FFFF5F
:1011300075F6FFFFE0DCFFFFA4F4FFFF70D9FFFFAF
:101140001AF3FFFFF2D6FFFFE2F1FFFF78D5FFFFB2
:1011500002F1FFFF0AD5FFFF81F0FFFFAAD5FFFFD5
:1011600062F0FFFF56D7FFFFA5F0FFFF01DAFFFF98
:1011700049F1FFFF9DDDFFFF4AF2FFFF11E2FFFF94
:10118000A1F3FFFF41E7FFFF47F5FFFF0EEDFFFF74
:1011900052F3FFFF50F9FFFF9AFBFFFFA0F8361153
:1011A000DFF8000EA021A0F83611DFF8FC0D7FF467
:1011B000FF71A0F83811DFF8EC0D40F25771A0F87C
:1011C0003811DFF8E40D7321A0F83A11DFF8D40DDF
:1011D00040F6DF51A0F83A11DFF8CC0D40F2E321E0
:1011E000A0F83C11DFF8BC0D41F21041A0F83C1111
:1011F000DFF8B40D4FF4A861A0F83E11DFF8A40D9C
:1012000041F6C211A0F83E11DFF89C0D40F27D714D
:10121000A0F84011DFF88C0D41F6D261A0F8401122
:10122000DFF8840D40F68B11A0F84211DFF8740D41
:1012300042F22031A0F84211DFF86C0D40F65C312B
:10124000A0F84411DFF85C0D42F29061A0F844115F
:10125000DFF8540D40F6E641A0F84611DFF8440DE2
:1012600042F60E11A0F84611DFF83C0D40F61E6163
:10127000A0F84811DFF82C0D42F68821A0F848119B
:10128000DFF8240D40F6FE61A0F84A11DFF8140DD6
:1012900042F6F621A0F84A11DFF80C0D40F67F71F6
:1012A000A0F84C11DFF8FC0C42F65621A0F84C11C6
:1012B000DFF8F40C40F69E71A0F84E11DFF8E40C54
:1012C00042F6AA01A0F84E11DFF8DC0C40F65B7183
:1012D000A0F85011DFF8CC0C42F2FF51A0F85011E9
:1012E000DFF8C40C40F6B761A0F85211DFF8B40C77
:1012F00042F26321A0F85211DFF8AC0C40F6B6516F
:10130000A0F85411DFF89C0C41F6EF51A0F85411ED
:10131000DFF8940C40F65F41A0F85611DFF8840C1A
:1013200041F6BF01A0F85611DFF87C0C40F6B92158
:10133000A0F85811DFF86C0C41F2F221A0F8581116
:10134000DFF8640C40F6D101A0F85A11DFF8540C14
:1013500040F6AE41A0F85A11DFF84C0C4FF4D661BC
:10136000A0F85C11DFF83C0C40F21961A0F85C11A8
:10137000DFF8340C40F26641A0F85E11DFF8240C6F
:101380007FF09F01A0F85E11DFF81C0C40F2FF1106
:10139000A0F86011DFF80C0CDFF8101CA0F8601149
:1013A000DFF8040C7FF07201A0F86211DFF8F40B93
:1013B000DFF8FC1BA0F86211DFF8EC0BDFF8F41B80
:1013C000A0F86411DFF8DC0BDFF8EC1BA0F8641167
:1013D000DFF8D40BDFF8E41BA0F86611DFF8C40BCC
:1013E000DFF8DC1BA0F86611DFF8BC0BDFF8D41BBC
:1013F000A0F86811DFF8AC0BDFF8CC1BA0F868117F
:10140000DFF8A40BDFF8C41BA0F86A11DFF8940B17
:10141000DFF8BC1BA0F86A11DFF88C0BDFF8B41BF7
:10142000A0F86C11DFF87C0BDFF8AC1BA0F86C1196
:10143000DFF8740BDFF8A41BA0F86E11DFF8640B63
:10144000DFF89C1BA0F86E11DFF85C0BDFF8941B33
:10145000A0F87011DFF84C0BDFF88C1BA0F87011AE
:10146000DFF8440BDFF8841BA0F87211DFF8340BAF
:10147000DFF87C1BA0F87211DFF82C0BDFF8741B6F
:10148000A0F87411DFF81C0BDFF86C1BA0F87411C6
:10149000DFF8140BDFF8641BA0F87611DFF8040BFB
:1014A000DFF85C1BA0F87611DFF8FC0ADFF8541BAC
:1014B000A0F87811DFF8EC0ADFF84C1BA0F87811DF
:1014C000DFF8E40ADFF8441BA0F87A11DFF8D40A49
:1014D000DFF83C1BA0F87A11DFF8CC0ADFF8341BE8
:1014E000A0F87C11DFF8BC0ADFF82C1BA0F87C11F7
:1014F000DFF8B40ADFF8241BA0F87E11DFF8A40A95
:10150000DFF81C1BA0F87E11DFF89C0ADFF8141B23
:10151000A0F88011DFF88C0ADFF80C1BA0F880110E
:10152000DFF8840A7FF40D61A0F88211DFF8740AF5
:10153000DFF8F81AA0F88211DFF86C0ADFF8F01A69
:10154000A0F88411DFF85C0A7FF4C361A0F884116D
:10155000DFF8540ADFF8DC1AA0F88611DFF8440A35
:10156000A021A0F88611DFF8400A7FF4FF71A0F8EF
:101570008811DFF8300A40F25771A0F88811DFF8BF
:10158000280A7321A0F88A11DFF8180A40F6DF5103
:10159000A0F88A11DFF8100A40F2E321A0F88C11BC
:1015A000DFF8000A41F21041A0F88C11DFF8F809C9
:1015B0004FF4A861A0F88E11DFF8E80941F6C211D6
:1015C000A0F88E11DFF8E00940F27D71A0F89011CB
:1015D000DFF8D00941F6D261A0F89011DFF8C80910
:1015E00040F68B11A0F89211DFF8B80942F22031D1
:1015F000A0F89211DFF8B00940F65C31A0F8941120
:10160000DFF8A00942F29061A0F89411DFF8980980
:1016100040F6E641A0F89611DFF8880942F60E116F
:10162000A0F89611DFF8800940F61E61A0F8981125
:10163000DFF8700942F68821A0F89811DFF86809F0
:1016400040F6FE61A0F89A11DFF8580942F6F6213B
:10165000A0F89A11DFF8500940F67F71A0F89C11AC
:10166000DFF8400942F65621A0F89C11DFF838094E
:1016700040F69E71A0F89E11DFF8280942F6AA01F3
:10168000A0F89E11DFF8200940F65B71A0F8A011C8
:10169000DFF8100942F2FF51A0F8A011DFF80809A5
:1016A00040F6B761A0F8A211DFF8F80842F2632112
:1016B000A0F8A211DFF8F00840F6B651A0F8A41186
:1016C000DFF8E00841F6EF51A0F8A411DFF8D808E0
:1016D00040F65F41A0F8A611DFF8C80841F6BF0147
:1016E000A0F8A611DFF8C00840F6B921A0F8A811AB
:1016F000DFF8B00841F2F221A0F8A811DFF8A8083D
:1017000040F6D101A0F8AA11DFF8980840F6AE41E2
:10171000A0F8AA11DFF890084FF4D661A0F8AC1138
:10172000DFF8800840F21961A0F8AC11DFF8780802
:1017300040F26641A0F8AE11DFF868087FF09F0123
:10174000A0F8AE11DFF8600840F2FF11A0F8B01168
:10175000DFF85008DFF85418A0F8B011DFF8480897
:101760007FF07201A0F8B211DFF83808DFF84018F6
:10177000A0F8B211DFF83008DFF83818A0F8B4117B
:10178000DFF82008DFF83018A0F8B411DFF81808E7
:10179000DFF82818A0F8B611DFF80808DFF82018DD
:1017A000A0F8B611DFF80008DFF81818A0F8B81193
:1017B000DFF8F007DFF81018A0F8B811DFF8E80735
:1017C000DFF80818A0F8BA11DFF8D807DFF800181A
:1017D000A0F8BA11DFF8D007DFF8F817A0F8BC11AD
:1017E000DFF8C007DFF8F017A0F8BC11DFF8B80782
:1017F000DFF8E817A0F8BE11DFF8A807DFF8E01758
:10180000A0F8BE11DFF8A007DFF8D817A0F8C011C4
:10181000DFF89007DFF8D017A0F8C011DFF88807CD
:10182000DFF8C817A0F8C211DFF87807DFF8C01793
:10183000A0F8C211DFF87007DFF8B817A0F8C411DC
:10184000DFF86007DFF8B017A0F8C411DFF8580719
:10185000DFF8A817A0F8C611DFF84807DFF8A017CF
:10186000A0F8C611DFF84007DFF89817A0F8C811F4
:10187000DFF83007DFF89017A0F8C811DFF8280765
:10188000DFF88817A0F8CA11DFF81807DFF880170B
:10189000A0F8CA11DFF81007DFF87817A0F8CC110C
:1018A000DFF80007DFF87017A0F8CC11DFF8F806B2
:1018B000DFF86817A0F8CE11DFF8E806DFF8601748
:1018C000A0F8CE11DFF8E006DFF85817A0F8D01125
:1018D000DFF8D006DFF85017A0F8D011DFF8C806FF
:1018E0007FF40D61A0F8D211DFF8B806DFF83C17DD
:1018F000A0F8D211DFF8B006DFF83417A0F8D41141
:10190000DFF8A0067FF4C361A0F8D411DFF89806D1
:10191000DFF82017A0F8D611DFF88806A021A0F87C
:10192000D611DFF884067FF4FF71A0F8D811DFF834
:10193000740640F25771A0F8D811DFF86C067321D5
:10194000A0F8DA11DFF85C0640F6DF51A0F8DA11F2
:10195000DFF8540640F2E321A0F8DC11DFF844067A
:1019600041F21041A0F8DC11DFF83C064FF4A86109
:10197000A0F8DE11DFF82C0641F6C211A0F8DE1146
:10198000DFF8240640F27D71A0F8E011DFF81406BC
:1019900041F6D261A0F8E011DFF80C0640F68B1199
:1019A000A0F8E211DFF8FC0542F22031A0F8E211C4
:1019B000DFF8F40540F65C31A0F8E411DFF8E40547
:1019C00042F29061A0F8E411DFF8DC0540F6E64150
:1019D000A0F8E611DFF8CC0542F60E11A0F8E611EA
:1019E000DFF8C40540F61E61A0F8E811DFF8B40581
:1019F00042F68821A0F8E811DFF8AC0540F6FE6158
:101A0000A0F8EA11DFF89C0542F6F621A0F8EA11E9
:101A1000DFF8940540F67F71A0F8EC11DFF884053B
:101A200042F65621A0F8EC11DFF87C0540F69E71D5
:101A3000A0F8EE11DFF86C0542F6AA01A0F8EE114D
:101A4000DFF8640540F65B71A0F8F011DFF854058B
:101A500042F2FF51A0F8F011DFF84C0540F6B761F3
:101A6000A0F8F211DFF83C0542F26321A0F8F21170
:101A7000DFF8340540F6B651A0F8F411DFF824057C
:101A800041F6EF51A0F8F411DFF81C0540F65F4174
:101A9000A0F8F611DFF80C0541F6BF01A0F8F61129
:101AA000DFF8040540F6B921A0F8F811DFF8F404D6
:101AB00041F2F221A0F8F811DFF8EC0440F6D10170
:101AC000A0F8FA11DFF8DC0440F6AE41A0F8FA11F4
:101AD000DFF8D4044FF4D661A0F8FC11DFF8C40499
:101AE00040F21961A0F8FC11DFF8BC0440F2664135
:101AF000A0F8FE11DFF8AC047FF09F01A0F8FE1102
:101B0000DFF8A40440F2FF11A0F80012DFF89404FB
:101B1000DFF89814A0F80012DFF88C047FF072014F
:101B2000A0F80212DFF87C04DFF88414A0F8021297
:101B3000DFF87404DFF87C14A0F80412DFF8640402
:101B4000DFF87414A0F80412DFF85C04DFF86C14FA
:101B5000A0F80612DFF84C04DFF86414A0F80612AF
:101B6000DFF84404DFF85C14A0F80812DFF834044E
:101B7000DFF85414A0F80812DFF82C04DFF84C1436
:101B8000A0F80A12DFF81C04DFF84414A0F80A12C7
:101B9000DFF81404DFF83C14A0F80C12DFF804049A
:101BA000DFF83414A0F80C12DFF8FC03DFF82C1473
:101BB000A0F80E12DFF8EC03DFF82414A0F80E12E0
:101BC000DFF8E403DFF81C14A0F81012DFF8D403E8
:101BD000DFF81414A0F81012DFF8CC03DFF80C14AF
:101BE000A0F81212DFF8BC03DFF80414A0F81212F8
:101BF000DFF8B403DFF8FC13A0F81412DFF8A40335
:101C0000DFF8F413A0F81412DFF89C03DFF8EC13EC
:101C1000A0F81612DFF88C03DFF8E413A0F8161210
:101C2000DFF88403DFF8DC13A0F81812DFF8740380
:101C3000DFF8D413A0F81812DFF86C03DFF8CC1328
:101C4000A0F81A12DFF85C03DFF8C413A0F81A1228
:101C5000DFF85403DFF8BC13A0F81C12DFF84403CC
:101C6000DFF8B413A0F81C12DFF83C03DFF8AC1364
:101C7000A0F81E12DFF82C03DFF8A413A0F81E1240
:101C8000DFF82403DFF89C13A0F82012DFF8140318
:101C9000DFF89413A0F82012DFF80C037FF40D6135
:101CA000A0F82212DFF8FC02DFF88013A0F822125D
:101CB000BD48DFF87C13A0F82412BA487FF4C36152
:101CC000A0F82412B848DFF86C13A0F82612B54823
:101CD000A021A0F82612B4487FF4FF71A0F82812C2
:101CE000B04840F25771A0F82812AF487321A0F80D
:101CF0002A12AC4840F6DF51A0F82A12AA4840F256
:101D0000E321A0F82C12A74841F21041A0F82C12B0
:101D1000A5484FF4A861A0F82E12A24841F6C211BE
:101D2000A0F82E12A04840F27D71A0F830129D4814
:101D300041F6D261A0F830129B4840F68B11A0F812
:101D40003212984842F22031A0F83212964840F6FA
:101D50005C31A0F83412934842F29061A0F834123A
:101D6000914840F6E641A0F836128E4842F60E1130
:101D7000A0F836128C4840F61E61A0F83812894847
:101D800042F68821A0F83812874840F6FE61A0F894
:101D90003A12844842F6F621A0F83A12824840F6F8
:101DA0007F71A0F83C127F4842F65621A0F83C1201
:101DB0007D4840F69E71A0F83E127A4842F6AA018C
:101DC000A0F83E12784840F65B71A0F840127548C2
:101DD00042F2FF51A0F84012734840F6B761A0F8F4
:101DE0004212704842F26321A0F842126E4840F657
:101DF000B651A0F844126B4841F6EF51A0F84412D6
:101E0000694840F65F41A0F84612664841F6BF01B6
:101E1000A0F84612644840F6B921A0F8481261487B
:101E200041F2F221A0F848125F4840F6D101A0F833
:101E30004A125C4840F6AE41A0F84A125A484FF4A4
:101E4000D661A0F84C12574840F21961A0F84C1224
:101E5000554840F26641A0F84E1252487FF09F016B
:101E6000A0F84E12504840F2FF11A0F850124D4811
:101E70004E49A0F850124C487FF07201A0F852125F
:101E800048484B49A0F8521247484A49A0F8541212
:101E900044484949A0F8541243484849A0F856120A
:101EA00040484749A0F856123F484649A0F8581202
:101EB0003C484549A0F858123B484449A0F85A12FA
:101EC00038484349A0F85A1237484249A0F85C12F2
:101ED00034484149A0F85C1233484049A0F85E12EA
:101EE00030483F49A0F85E122F483E49A0F86012E2
:101EF0002C483D49A0F860122B483C49A0F86212DA
:101F000028483B49A0F8621227483A49A0F86412D1
:101F100024483949A0F8641223483849A0F86612C9
:101F200020483749A0F866121F483649A0F86812C1
:101F30001C483549A0F868121B483449A0F86A12B9
:101F400018483349A0F86A1217483249A0F86C12B1
:101F500014483149A0F86C1213483049A0F86E12A9
:101F600010482F49A0F86E120F482E49A0F87012A1
:101F70000C482D49A0F870120B487FF40D61A0F8B1
:101F8000721208482949A0F8721207482849A0F897
:101F9000741204487FF4C361A0F874120248254902
:101FA0004AE000BF081D0020E8000020A9F8FFFF5C
:101FB00021F2FFFF1DFDFFFFF0EBFFFFC0FAFFFF67
:101FC0003EE6FFFF83F8FFFF2EE1FFFF75F6FFFF00
:101FD000E0DCFFFFA4F4FFFF70D9FFFF1AF3FFFF5F
:101FE000F2D6FFFFE2F1FFFF78D5FFFF02F1FFFF1E
:101FF0000AD5FFFF81F0FFFFAAD5FFFF62F0FFFFC8
:1020000056D7FFFFA5F0FFFF01DAFFFF49F1FFFF01
:102010009DDDFFFF4AF2FFFF11E2FFFFA1F3FFFF8B
:1020200041E7FFFF47F5FFFF0EEDFFFF52F3FFFF14
:1020300050F9FFFF9AFBFFFFA0F87612DFF8000EC1
:10204000A021A0F87612DFF8FC0D7FF4FF71A0F854
:102050007812DFF8EC0D40F25771A0F87812DFF833
:10206000E40D7321A0F87A12DFF8D40D40F6DF51A9
:10207000A0F87A12DFF8CC0D40F2E321A0F87C1230
:10208000DFF8BC0D41F21041A0F87C12DFF8B40D6E
:102090004FF4A861A0F87E12DFF8A40D41F6C2113A
:1020A000A0F87E12DFF89C0D40F27D71A0F880123E
:1020B000DFF88C0D41F6D261A0F88012DFF8840DB4
:1020C00040F68B11A0F88212DFF8740D42F2203135
:1020D000A0F88212DFF86C0D40F65C31A0F8841293
:1020E000DFF85C0D42F29061A0F88412DFF8540D25
:1020F00040F6E641A0F88612DFF8440D42F60E11D4
:10210000A0F88612DFF83C0D40F61E61A0F8881298
:10211000DFF82C0D42F68821A0F88812DFF8240D94
:1021200040F6FE61A0F88A12DFF8140D42F6F6219F
:10213000A0F88A12DFF80C0D40F67F71A0F88C121F
:10214000DFF8FC0C42F65621A0F88C12DFF8F40CF4
:1021500040F69E71A0F88E12DFF8E40C42F6AA0158
:10216000A0F88E12DFF8DC0C40F65B71A0F890123C
:10217000DFF8CC0C42F2FF51A0F89012DFF8C40C4B
:1021800040F6B761A0F89212DFF8B40C42F2632176
:10219000A0F89212DFF8AC0C40F6B651A0F89412F9
:1021A000DFF89C0C41F6EF51A0F89412DFF8940C84
:1021B00040F65F41A0F89612DFF8840C41F6BF01AB
:1021C000A0F89612DFF87C0C40F6B921A0F898121E
:1021D000DFF86C0C41F2F221A0F89812DFF8640CE1
:1021E00040F6D101A0F89A12DFF8540C40F6AE4147
:1021F000A0F89A12DFF84C0C4FF4D661A0F89C12AC
:10220000DFF83C0C40F21961A0F89C12DFF8340CA6
:1022100040F26641A0F89E12DFF8240C7FF09F0187
:10222000A0F89E12DFF81C0C40F2FF11A0F8A012DB
:10223000DFF80C0CDFF8101CA0F8A012DFF8040C7B
:102240007FF07201A0F8A212DFF8F40BDFF8FC1B9C
:10225000A0F8A212DFF8EC0BDFF8F41BA0F8A41230
:10226000DFF8DC0BDFF8EC1BA0F8A412DFF8D40BCE
:10227000DFF8E41BA0F8A612DFF8C40BDFF8DC1BC4
:10228000A0F8A612DFF8BC0BDFF8D41BA0F8A81248
:10229000DFF8AC0BDFF8CC1BA0F8A812DFF8A40B1A
:1022A000DFF8C41BA0F8AA12DFF8940BDFF8BC1B00
:1022B000A0F8AA12DFF88C0BDFF8B41BA0F8AC1260
:1022C000DFF87C0BDFF8AC1BA0F8AC12DFF8740B66
:1022D000DFF8A41BA0F8AE12DFF8640BDFF89C1B3C
:1022E000A0F8AE12DFF85C0BDFF8941BA0F8B01278
:1022F000DFF84C0BDFF88C1BA0F8B012DFF8440BB2
:10230000DFF8841BA0F8B212DFF8340BDFF87C1B77
:10231000A0F8B212DFF82C0BDFF8741BA0F8B4128F
:10232000DFF81C0BDFF86C1BA0F8B412DFF8140BFD
:10233000DFF8641BA0F8B612DFF8040BDFF85C1BB3
:10234000A0F8B612DFF8FC0ADFF8541BA0F8B812A8
:10235000DFF8EC0ADFF84C1BA0F8B812DFF8E40A4B
:10236000DFF8441BA0F8BA12DFF8D40ADFF83C1BF0
:10237000A0F8BA12DFF8CC0ADFF8341BA0F8BC12C0
:10238000DFF8BC0ADFF82C1BA0F8BC12DFF8B40A97
:10239000DFF8241BA0F8BE12DFF8A40ADFF81C1B2C
:1023A000A0F8BE12DFF89C0ADFF8141BA0F8C012D8
:1023B000DFF88C0ADFF80C1BA0F8C012DFF8840AE3
:1023C0007FF40D61A0F8C212DFF8740ADFF8F81A82
:1023D000A0F8C212DFF86C0ADFF8F01AA0F8C412F5
:1023E000DFF85C0A7FF4C361A0F8C412DFF8540A76
:1023F000DFF8DC1AA0F8C612DFF8440AA021A0F822
:10240000C612DFF8400A7FF4FF71A0F8C812DFF8A7
:10241000300A40F25771A0F8C812DFF8280A732179
:10242000A0F8CA12DFF8180A40F6DF51A0F8CA1265
:10243000DFF8100A40F2E321A0F8CC12DFF8000A1E
:1024400041F21041A0F8CC12DFF8F8094FF4A8616E
:10245000A0F8CE12DFF8E80941F6C211A0F8CE12BA
:10246000DFF8E00940F27D71A0F8D012DFF8D00962
:1024700041F6D261A0F8D012DFF8C80940F68B11FE
:10248000A0F8D212DFF8B80942F22031A0F8D21237
:10249000DFF8B00940F65C31A0F8D412DFF8A009EB
:1024A00042F29061A0F8D412DFF8980940F6E641B4
:1024B000A0F8D612DFF8880942F60E11A0F8D6125D
:1024C000DFF8800940F61E61A0F8D812DFF8700925
:1024D00042F68821A0F8D812DFF8680940F6FE61BC
:1024E000A0F8DA12DFF8580942F6F621A0F8DA125D
:1024F000DFF8500940F67F71A0F8DC12DFF84009E0
:1025000042F65621A0F8DC12DFF8380940F69E7139
:10251000A0F8DE12DFF8280942F6AA01A0F8DE12C0
:10252000DFF8200940F65B71A0F8E012DFF810092F
:1025300042F2FF51A0F8E012DFF8080940F6B76157
:10254000A0F8E212DFF8F80842F26321A0F8E212E4
:10255000DFF8F00840F6B651A0F8E412DFF8E00822
:1025600041F6EF51A0F8E412DFF8D80840F65F41D9
:10257000A0F8E612DFF8C80841F6BF01A0F8E6129D
:10258000DFF8C00840F6B921A0F8E812DFF8B0087B
:1025900041F2F221A0F8E812DFF8A80840F6D101D4
:1025A000A0F8EA12DFF8980840F6AE41A0F8EA1267
:1025B000DFF890084FF4D661A0F8EC12DFF880083D
:1025C00040F21961A0F8EC12DFF8780840F2664199
:1025D000A0F8EE12DFF868087FF09F01A0F8EE1275
:1025E000DFF8600840F2FF11A0F8F012DFF85008A1
:1025F000DFF85418A0F8F012DFF848087FF07201F5
:10260000A0F8F212DFF83808DFF84018A0F8F2124C
:10261000DFF83008DFF83818A0F8F412DFF82008E7
:10262000DFF83018A0F8F412DFF81808DFF82818DF
:10263000A0F8F612DFF80808DFF82018A0F8F61264
:10264000DFF80008DFF81818A0F8F812DFF8F00734
:10265000DFF81018A0F8F812DFF8E807DFF808181C
:10266000A0F8FA12DFF8D807DFF80018A0F8FA127D
:10267000DFF8D007DFF8F817A0F8FC12DFF8C00782
:10268000DFF8F017A0F8FC12DFF8B807DFF8E8175A
:10269000A0F8FE12DFF8A807DFF8E017A0F8FE1296
:1026A000DFF8A007DFF8D817A0F80013DFF89007CD
:1026B000DFF8D017A0F80013DFF88807DFF8C81795
:1026C000A0F80213DFF87807DFF8C017A0F80213AC
:1026D000DFF87007DFF8B817A0F80413DFF8600719
:1026E000DFF8B017A0F80413DFF85807DFF8A817D1
:1026F000A0F80613DFF84807DFF8A017A0F80613C4
:10270000DFF84007DFF89817A0F80813DFF8300764
:10271000DFF89017A0F80813DFF82807DFF888170C
:10272000A0F80A13DFF81807DFF88017A0F80A13DB
:10273000DFF81007DFF87817A0F80C13DFF80007B0
:10274000DFF87017A0F80C13DFF8F806DFF8681749
:10275000A0F80E13DFF8E806DFF86017A0F80E13F4
:10276000DFF8E006DFF85817A0F81013DFF8D006FE
:10277000DFF85017A0F81013DFF8C8067FF40D61DA
:10278000A0F81213DFF8B806DFF83C17A0F8121310
:10279000DFF8B006DFF83417A0F81413DFF8A0064E
:1027A0007FF4C361A0F81413DFF89806DFF8201750
:1027B000A0F81613DFF88806A021A0F81613DFF89A
:1027C00084067FF4FF71A0F81813DFF8740640F256
:1027D0005771A0F81813DFF86C067321A0F81A13CC
:1027E000DFF85C0640F6DF51A0F81A13DFF8540654
:1027F00040F2E321A0F81C13DFF8440641F2104137
:10280000A0F81C13DFF83C064FF4A861A0F81E13D3
:10281000DFF82C0641F6C211A0F81E13DFF82406DB
:1028200040F27D71A0F82013DFF8140641F6D26162
:10283000A0F82013DFF80C0640F68B11A0F8221345
:10284000DFF8FC0542F22031A0F82213DFF8F4058E
:1028500040F65C31A0F82413DFF8E40542F2906101
:10286000A0F82413DFF8DC0540F6E641A0F82613B3
:10287000DFF8CC0542F60E11A0F82613DFF8C405E8
:1028800040F61E61A0F82813DFF8B40542F688214F
:10289000A0F82813DFF8AC0540F6FE61A0F82A1373
:1028A000DFF89C0542F6F621A0F82A13DFF894051C
:1028B00040F67F71A0F82C13DFF8840542F656210C
:1028C000A0F82C13DFF87C0540F69E71A0F82E13BB
:1028D000DFF86C0542F6AA01A0F82E13DFF86405B4
:1028E00040F65B71A0F83013DFF8540542F2FF5157
:1028F000A0F83013DFF84C0540F6B761A0F83213AA
:10290000DFF83C0542F26321A0F83213DFF834050A
:1029100040F6B651A0F83413DFF8240541F6EF5124
:10292000A0F83413DFF81C0540F65F41A0F8361319
:10293000DFF80C0541F6BF01A0F83613DFF80405F7
:1029400040F6B921A0F83813DFF8F40441F2F2217F
:10295000A0F83813DFF8EC0440F6D101A0F83A13E0
:10296000DFF8DC0440F6AE41A0F83A13DFF8D404F7
:102970004FF4D661A0F83C13DFF8C40440F21961AB
:10298000A0F83C13DFF8BC0440F26641A0F83E1307
:10299000DFF8AC047FF09F01A0F83E13DFF8A40439
:1029A00040F2FF11A0F84013DFF89404DFF8981408
:1029B000A0F84013DFF88C047FF07201A0F84213F6
:1029C000DFF87C04DFF88414A0F84213DFF8740405
:1029D000DFF87C14A0F84413DFF86404DFF8741403
:1029E000A0F84413DFF85C04DFF86C14A0F8461379
:1029F000DFF84C04DFF86414A0F84613DFF8440451
:102A0000DFF85C14A0F84813DFF83404DFF854143E
:102A1000A0F84813DFF82C04DFF84C14A0F84A1390
:102A2000DFF81C04DFF84414A0F84A13DFF814049C
:102A3000DFF83C14A0F84C13DFF80404DFF834147A
:102A4000A0F84C13DFF8FC03DFF82C14A0F84E13A9
:102A5000DFF8EC03DFF82414A0F84E13DFF8E403EA
:102A6000DFF81C14A0F85013DFF8D403DFF81414B7
:102A7000A0F85013DFF8CC03DFF80C14A0F85213C1
:102A8000DFF8BC03DFF80414A0F85213DFF8B40336
:102A9000DFF8FC13A0F85413DFF8A403DFF8F413F5
:102AA000A0F85413DFF89C03DFF8EC13A0F85613DA
:102AB000DFF88C03DFF8E413A0F85613DFF8840383
:102AC000DFF8DC13A0F85813DFF87403DFF8D41331
:102AD000A0F85813DFF86C03DFF8CC13A0F85A13F2
:102AE000DFF85C03DFF8C413A0F85A13DFF85403CF
:102AF000DFF8BC13A0F85C13DFF84403DFF8B4136D
:102B0000A0F85C13DFF83C03DFF8AC13A0F85E1309
:102B1000DFF82C03DFF8A413A0F85E13DFF824031A
:102B2000DFF89C13A0F86013DFF81403DFF89413A8
:102B3000A0F86013DFF80C037FF40D61A0F86213B6
:102B4000DFF8FC02DFF88013A0F86213BD48DFF85D
:102B50007C13A0F86413BA487FF4C361A0F864132F
:102B6000B848DFF86C13A0F86613B548A021A0F8A8
:102B70006613B4487FF4FF71A0F86813B04840F2C0
:102B80005771A0F86813AF487321A0F86A13AC48D6
:102B900040F6DF51A0F86A13AA4840F2E321A0F8FA
:102BA0006C13A74841F21041A0F86C13A5484FF4EC
:102BB000A861A0F86E13A24841F6C211A0F86E13E6
:102BC000A04840F27D71A0F870139D4841F6D26193
:102BD000A0F870139B4840F68B11A0F87213984828
:102BE00042F22031A0F87213964840F65C31A0F80A
:102BF0007413934842F29061A0F87413914840F620
:102C0000E641A0F876138E4842F60E11A0F876132E
:102C10008C4840F61E61A0F87813894842F6882156
:102C2000A0F87813874840F6FE61A0F87A1384482C
:102C300042F6F621A0F87A13824840F67F71A0F898
:102C40007C137F4842F65621A0F87C137D4840F65D
:102C50009E71A0F87E137A4842F6AA01A0F87E136E
:102C6000784840F65B71A0F88013754842F2FF5136
:102C7000A0F88013734840F6B761A0F8821370483B
:102C800042F26321A0F882136E4840F6B651A0F8D4
:102C900084136B4841F6EF51A0F88413694840F65D
:102CA0005F41A0F88613664841F6BF01A0F886137D
:102CB000644840F6B921A0F88813614841F2F22136
:102CC000A0F888135F4840F6D101A0F88A135C4849
:102CD00040F6AE41A0F88A135A484FF4D661A0F8E6
:102CE0008C13574840F21961A0F88C13554840F2F4
:102CF0006641A0F88E1352487FF09F01A0F88E1312
:102D0000504840F2FF11A0F890134D484E49A0F8EA
:102D100090134C487FF07201A0F8921348484B4939
:102D2000A0F8921347484A49A0F8941344484949E7
:102D3000A0F8941343484849A0F8961340484749DF
:102D4000A0F896133F484649A0F898133C484549D7
:102D5000A0F898133B484449A0F89A1338484349CF
:102D6000A0F89A1337484249A0F89C1334484149C7
:102D7000A0F89C1333484049A0F89E1330483F49BF
:102D8000A0F89E132F483E49A0F8A0132C483D49B7
:102D9000A0F8A0132B483C49A0F8A21328483B49AF
:102DA000A0F8A21327483A49A0F8A41324483949A7
:102DB000A0F8A41323483849A0F8A613204837499F
:102DC000A0F8A6131F483649A0F8A8131C48354997
:102DD000A0F8A8131B483449A0F8AA13184833498F
:102DE000A0F8AA1317483249A0F8AC131448314987
:102DF000A0F8AC1313483049A0F8AE1310482F497F
:102E0000A0F8AE130F482E49A0F8B0130C482D4976
:102E1000A0F8B0130B487FF40D61A0F8B213084876
:102E20002949A0F8B21307482849A0F8B413044868
:102E30007FF4C361A0F8B413024825494AE000BFFB
:102E4000081D0020E8000020A9F8FFFF21F2FFFF85
:102E50001DFDFFFFF0EBFFFFC0FAFFFF3EE6FFFFA7
:102E600083F8FFFF2EE1FFFF75F6FFFFE0DCFFFFB9
:102E7000A4F4FFFF70D9FFFF1AF3FFFFF2D6FFFFA4
:102E8000E2F1FFFF78D5FFFF02F1FFFF0AD5FFFF58
:102E900081F0FFFFAAD5FFFF62F0FFFF56D7FFFFCB
:102EA000A5F0FFFF01DAFFFF49F1FFFF9DDDFFFF06
:102EB0004AF2FFFF11E2FFFFA1F3FFFF41E7FFFF2F
:102EC00047F5FFFF0EEDFFFF52F3FFFF50F9FFFF45
:102ED0009AFBFFFFA0F8B613DFF8000EA021A0F8C0
:102EE000B613DFF8FC0D7FF4FF71A0F8B813DFF81C
:102EF000EC0D40F25771A0F8B813DFF8E40D732120
:102F0000A0F8BA13DFF8D40D40F6DF51A0F8BA13D9
:102F1000DFF8CC0D40F2E321A0F8BC13DFF8BC0DC4
:102F200041F21041A0F8BC13DFF8B40D4FF4A861D2
:102F3000A0F8BE13DFF8A40D41F6C211A0F8BE132D
:102F4000DFF89C0D40F27D71A0F8C013DFF88C0D06
:102F500041F6D261A0F8C013DFF8840D40F68B1162
:102F6000A0F8C213DFF8740D42F22031A0F8C213AA
:102F7000DFF86C0D40F65C31A0F8C413DFF85C0D8F
:102F800042F29061A0F8C413DFF8540D40F6E64118
:102F9000A0F8C613DFF8440D42F60E11A0F8C613D0
:102FA000DFF83C0D40F61E61A0F8C813DFF82C0DC9
:102FB00042F68821A0F8C813DFF8240D40F6FE6120
:102FC000A0F8CA13DFF8140D42F6F621A0F8CA13D0
:102FD000DFF80C0D40F67F71A0F8CC13DFF8FC0C85
:102FE00042F65621A0F8CC13DFF8F40C40F69E719F
:102FF000A0F8CE13DFF8E40C42F6AA01A0F8CE1335
:10300000DFF8DC0C40F65B71A0F8D013DFF8CC0CD5
:1030100042F2FF51A0F8D013DFF8C40C40F6B761BC
:10302000A0F8D213DFF8B40C42F26321A0F8D21357
:10303000DFF8AC0C40F6B651A0F8D413DFF89C0CC6
:1030400041F6EF51A0F8D413DFF8940C40F65F413D
:10305000A0F8D613DFF8840C41F6BF01A0F8D61310
:10306000DFF87C0C40F6B921A0F8D813DFF86C0C1F
:1030700041F2F221A0F8D813DFF8640C40F6D10138
:10308000A0F8DA13DFF8540C40F6AE41A0F8DA13DA
:10309000DFF84C0C4FF4D661A0F8DC13DFF83C0CE1
:1030A00040F21961A0F8DC13DFF8340C40F26641FD
:1030B000A0F8DE13DFF8240C7FF09F01A0F8DE13E8
:1030C000DFF81C0C40F2FF11A0F8E013DFF80C0C45
:1030D000DFF8101CA0F8E013DFF8040C7FF0720199
:1030E000A0F8E213DFF8F40BDFF8FC1BA0F8E21302
:1030F000DFF8EC0BDFF8F41BA0F8E413DFF8DC0BCF
:10310000DFF8EC1BA0F8E413DFF8D40BDFF8E41BC6
:10311000A0F8E613DFF8C40BDFF8DC1BA0F8E61319
:10312000DFF8BC0BDFF8D41BA0F8E813DFF8AC0B1A
:10313000DFF8CC1BA0F8E813DFF8A40BDFF8C41B02
:10314000A0F8EA13DFF8940BDFF8BC1BA0F8EA1331
:10315000DFF88C0BDFF8B41BA0F8EC13DFF87C0B66
:10316000DFF8AC1BA0F8EC13DFF8740BDFF8A41B3E
:10317000A0F8EE13DFF8640BDFF89C1BA0F8EE1349
:10318000DFF85C0BDFF8941BA0F8F013DFF84C0BB2
:10319000DFF88C1BA0F8F013DFF8440BDFF8841B7A
:1031A000A0F8F213DFF8340BDFF87C1BA0F8F21361
:1031B000DFF82C0BDFF8741BA0F8F413DFF81C0BFE
:1031C000DFF86C1BA0F8F413DFF8140BDFF8641BB6
:1031D000A0F8F613DFF8040BDFF85C1BA0F8F61379
:1031E000DFF8FC0ADFF8541BA0F8F813DFF8EC0A4C
:1031F000DFF84C1BA0F8F813DFF8E40ADFF8441BF3
:10320000A0F8FA13DFF8D40ADFF83C1BA0F8FA1391
:10321000DFF8CC0ADFF8341BA0F8FC13DFF8BC0A97
:10322000DFF82C1BA0F8FC13DFF8B40ADFF8241B2E
:10323000A0F8FE13DFF8A40ADFF81C1BA0F8FE13A9
:10324000DFF89C0ADFF8141BA0F80014DFF88C0AE2
:10325000DFF80C1BA0F80014DFF8840A7FF40D617E
:10326000A0F80214DFF8740ADFF8F81AA0F80214C4
:10327000DFF86C0ADFF8F01AA0F80414DFF85C0A33
:103280007FF4C361A0F80414DFF8540ADFF8DC1AF5
:10329000A0F80614DFF8440AA021A0F80614DFF80D
:1032A000400A7FF4FF71A0F80814DFF8300A40F2FA
:1032B0005771A0F80814DFF8280A7321A0F80A143F
:1032C000DFF8180A40F6DF51A0F80A14DFF8100AF8
:1032D00040F2E321A0F80C14DFF8000A41F210419B
:1032E000A0F80C14DFF8F8094FF4A861A0F80E1448
:1032F000DFF8E80941F6C211A0F80E14DFF8E00982
:1033000040F27D71A0F81014DFF8D00941F6D261C7
:10331000A0F81014DFF8C80940F68B11A0F81214B9
:10332000DFF8B80942F22031A0F81214DFF8B00932
:1033300040F65C31A0F81414DFF8A00942F2906165
:10334000A0F81414DFF8980940F6E641A0F8161426
:10335000DFF8880942F60E11A0F81614DFF880098C
:1033600040F61E61A0F81814DFF8700942F68821B3
:10337000A0F81814DFF8680940F6FE61A0F81A14E6
:10338000DFF8580942F6F621A0F81A14DFF85009C0
:1033900040F67F71A0F81C14DFF8400942F6562170
:1033A000A0F81C14DFF8380940F69E71A0F81E142E
:1033B000DFF8280942F6AA01A0F81E14DFF8200958
:1033C00040F65B71A0F82014DFF8100942F2FF51BB
:1033D000A0F82014DFF8080940F6B761A0F822141D
:1033E000DFF8F80842F26321A0F82214DFF8F008B1
:1033F00040F6B651A0F82414DFF8E00841F6EF518A
:10340000A0F82414DFF8D80840F65F41A0F826148D
:10341000DFF8C80841F6BF01A0F82614DFF8C0089D
:1034200040F6B921A0F82814DFF8B00841F2F221E3
:10343000A0F82814DFF8A80840F6D101A0F82A1453
:10344000DFF8980840F6AE41A0F82A14DFF890089B
:103450004FF4D661A0F82C14DFF8800840F219610F
:10346000A0F82C14DFF8780840F26641A0F82E147A
:10347000DFF868087FF09F01A0F82E14DFF86008DD
:1034800040F2FF11A0F83014DFF85008DFF85418AC
:10349000A0F83014DFF848087FF07201A0F8321469
:1034A000DFF83808DFF84018A0F83214DFF83008E9
:1034B000DFF83818A0F83414DFF82008DFF83018E7
:1034C000A0F83414DFF81808DFF82818A0F836142C
:1034D000DFF80808DFF82018A0F83614DFF8000835
:1034E000DFF81818A0F83814DFF8F007DFF8101824
:1034F000A0F83814DFF8E807DFF80818A0F83A1445
:10350000DFF8D807DFF80018A0F83A14DFF8D00782
:10351000DFF8F817A0F83C14DFF8C007DFF8F01761
:10352000A0F83C14DFF8B807DFF8E817A0F83E145D
:10353000DFF8A807DFF8E017A0F83E14DFF8A007CF
:10354000DFF8D817A0F84014DFF89007DFF8D0179D
:10355000A0F84014DFF88807DFF8C817A0F8421475
:10356000DFF87807DFF8C017A0F84214DFF870071B
:10357000DFF8B817A0F84414DFF86007DFF8B017D9
:10358000A0F84414DFF85807DFF8A817A0F846148D
:10359000DFF84807DFF8A017A0F84614DFF8400767
:1035A000DFF89817A0F84814DFF83007DFF8901715
:1035B000A0F84814DFF82807DFF88817A0F84A14A5
:1035C000DFF81807DFF88017A0F84A14DFF81007B3
:1035D000DFF87817A0F84C14DFF80007DFF8701751
:1035E000A0F84C14DFF8F806DFF86817A0F84E14BE
:1035F000DFF8E806DFF86017A0F84E14DFF8E00601
:10360000DFF85817A0F85014DFF8D006DFF850178D
:10361000A0F85014DFF8C8067FF40D61A0F852142A
:10362000DFF8B806DFF83C17A0F85214DFF8B00650
:10363000DFF83417A0F85414DFF8A0067FF4C36154
:10364000A0F85414DFF89806DFF82017A0F85614F5
:10365000DFF88806A021A0F85614DFF884067FF46E
:10366000FF71A0F85814DFF8740640F25771A0F803
:103670005814DFF86C067321A0F85A14DFF85C06C2
:1036800040F6DF51A0F85A14DFF8540640F2E32167
:10369000A0F85C14DFF8440641F21041A0F85C1475
:1036A000DFF83C064FF4A861A0F85E14DFF82C06A2
:1036B00041F6C211A0F85E14DFF8240640F27D71D5
:1036C000A0F86014DFF8140641F6D261A0F8601487
:1036D000DFF80C0640F68B11A0F86214DFF8FC0549
:1036E00042F22031A0F86214DFF8F40540F65C31B4
:1036F000A0F86414DFF8E40542F29061A0F86414C5
:10370000DFF8DC0540F6E641A0F86614DFF8CC05EA
:1037100042F60E11A0F86614DFF8C40540F61E61EB
:10372000A0F86814DFF8B40542F68821A0F8681400
:10373000DFF8AC0540F6FE61A0F86A14DFF89C05DE
:1037400042F6F621A0F86A14DFF8940540F67F717E
:10375000A0F86C14DFF8840542F65621A0F86C142A
:10376000DFF87C0540F69E71A0F86E14DFF86C055A
:1037700042F6AA01A0F86E14DFF8640540F65B710A
:10378000A0F87014DFF8540542F2FF51A0F870144D
:10379000DFF84C0540F6B761A0F87214DFF83C057D
:1037A00042F26321A0F87214DFF8340540F6B651F6
:1037B000A0F87414DFF8240541F6EF51A0F8741452
:1037C000DFF81C0540F65F41A0F87614DFF80C0521
:1037D00041F6BF01A0F87614DFF8040540F6B921E0
:1037E000A0F87814DFF8F40441F2F221A0F878147C
:1037F000DFF8EC0440F6D101A0F87A14DFF8DC041D
:1038000040F6AE41A0F87A14DFF8D4044FF4D66144
:10381000A0F87C14DFF8C40440F21961A0F87C140D
:10382000DFF8BC0440F26641A0F87E14DFF8AC0477
:103830007FF09F01A0F87E14DFF8A40440F2FF118E
:10384000A0F88014DFF89404DFF89814A0F880142E
:10385000DFF88C047FF07201A0F88214DFF87C049A
:10386000DFF88414A0F88214DFF87404DFF87C1405
:10387000A0F88414DFF86404DFF87414A0F884144A
:10388000DFF85C04DFF86C14A0F88614DFF84C0451
:10389000DFF86414A0F88614DFF84404DFF85C1441
:1038A000A0F88814DFF83404DFF85414A0F8881462
:1038B000DFF82C04DFF84C14A0F88A14DFF81C049D
:1038C000DFF84414A0F88A14DFF81404DFF83C147D
:1038D000A0F88C14DFF80404DFF83414A0F88C147A
:1038E000DFF8FC03DFF82C14A0F88E14DFF8EC03EB
:1038F000DFF82414A0F88E14DFF8E403DFF81C14BA
:10390000A0F89014DFF8D403DFF81414A0F8901492
:10391000DFF8CC03DFF80C14A0F89214DFF8BC0336
:10392000DFF80414A0F89214DFF8B403DFF8FC13F6
:10393000A0F89414DFF8A403DFF8F413A0F89414AB
:10394000DFF89C03DFF8EC13A0F89614DFF88C0383
:10395000DFF8E413A0F89614DFF88403DFF8DC1333
:10396000A0F89814DFF87403DFF8D413A0F89814C3
:10397000DFF86C03DFF8CC13A0F89A14DFF85C03CF
:10398000DFF8C413A0F89A14DFF85403DFF8BC136F
:10399000A0F89C14DFF84403DFF8B413A0F89C14DB
:1039A000DFF83C03DFF8AC13A0F89E14DFF82C031B
:1039B000DFF8A413A0F89E14DFF82403DFF89C13AB
:1039C000A0F8A014DFF81403DFF89413A0F8A014F3
:1039D000DFF80C037FF40D61A0F8A214DFF8FC02FD
:1039E000DFF88013A0F8A214BD48DFF87C13A0F81C
:1039F000A414BA487FF4C361A0F8A414B848DFF84F
:103A00006C13A0F8A614B548A021A0F8A614B448D9
:103A10007FF4FF71A0F8A814B04840F25771A0F8E5
:103A2000A814AF487321A0F8AA14AC4840F6DF519F
:103A3000A0F8AA14AA4840F2E321A0F8AC14A748C1
:103A400041F21041A0F8AC14A5484FF4A861A0F8C9
:103A5000AE14A24841F6C211A0F8AE14A04840F23C
:103A60007D71A0F8B0149D4841F6D261A0F8B01461
:103A70009B4840F68B11A0F8B214984842F22031CE
:103A8000A0F8B214964840F65C31A0F8B4149348FC
:103A900042F29061A0F8B414914840F6E641A0F8D3
:103AA000B6148E4842F60E11A0F8B6148C4840F6B3
:103AB0001E61A0F8B814894842F68821A0F8B8140D
:103AC000874840F6FE61A0F8BA14844842F6F62111
:103AD000A0F8BA14824840F67F71A0F8BC147F4861
:103AE00042F65621A0F8BC147D4840F69E71A0F81D
:103AF000BE147A4842F6AA01A0F8BE14784840F6EF
:103B00005B71A0F8C014754842F2FF51A0F8C014D0
:103B1000734840F6B761A0F8C214704842F26321BE
:103B2000A0F8C2146E4840F6B651A0F8C4146B4811
:103B300041F6EF51A0F8C414694840F65F41A0F87F
:103B4000C614664841F6BF01A0F8C614644840F6A2
:103B5000B921A0F8C814614841F2F221A0F8C814B4
:103B60005F4840F6D101A0F8CA145C4840F6AE4167
:103B7000A0F8CA145A484FF4D661A0F8CC1457489C
:103B800040F21961A0F8CC14554840F26641A0F803
:103B9000CE1452487FF09F01A0F8CE14504840F256
:103BA000FF11A0F8D0144D484E49A0F8D0144C484D
:103BB0007FF07201A0F8D21448484B49A0F8D21403
:103BC00047484A49A0F8D41444484949A0F8D414B5
:103BD00043484849A0F8D61440484749A0F8D614AD
:103BE0003F484649A0F8D8143C484549A0F8D814A5
:103BF0003B484449A0F8DA1438484349A0F8DA149D
:103C000037484249A0F8DC1434484149A0F8DC1494
:103C100033484049A0F8DE1430483F49A0F8DE148C
:103C20002F483E49A0F8E0142C483D49A0F8E01484
:103C30002B483C49A0F8E21428483B49A0F8E2147C
:103C400027483A49A0F8E41424483949A0F8E41474
:103C500023483849A0F8E61420483749A0F8E6146C
:103C60001F483649A0F8E8141C483549A0F8E81464
:103C70001B483449A0F8EA1418483349A0F8EA145C
:103C800017483249A0F8EC1414483149A0F8EC1454
:103C900013483049A0F8EE1410482F49A0F8EE144C
:103CA0000F482E49A0F8F0140C482D49A0F8F01444
:103CB0000B487FF40D61A0F8F21408482949A0F8D8
:103CC000F21407482849A0F8F41404487FF4C361AB
:103CD000A0F8F414024825494AE000BF081D00205E
:103CE000E8000020A9F8FFFF21F2FFFF1DFDFFFF04
:103CF000F0EBFFFFC0FAFFFF3EE6FFFF83F8FFFF98
:103D00002EE1FFFF75F6FFFFE0DCFFFFA4F4FFFFED
:103D100070D9FFFF1AF3FFFFF2D6FFFFE2F1FFFFBA
:103D200078D5FFFF02F1FFFF0AD5FFFF81F0FFFF0B
:103D3000AAD5FFFF62F0FFFF56D7FFFFA5F0FFFFF8
:103D400001DAFFFF49F1FFFF9DDDFFFF4AF2FFFFB0
:103D500011E2FFFFA1F3FFFF41E7FFFF47F5FFFF80
:103D60000EEDFFFF52F3FFFF50F9FFFF9AFBFFFF3D
:103D7000A0F8F614DFF8000EA021A0F8F614DFF882
:103D8000FC0D7FF4FF71A0F8F814DFF8EC0D40F2A1
:103D90005771A0F8F814DFF8E40D7321A0F8FA14B5
:103DA000DFF8D40D40F6DF51A0F8FA14DFF8CC0D9F
:103DB00040F2E321A0F8FC14DFF8BC0D41F2104101
:103DC000A0F8FC14DFF8B40D4FF4A861A0F8FE14BD
:103DD000DFF8A40D41F6C211A0F8FE14DFF89C0D27
:103DE00040F27D71A0F80015DFF88C0D41F6D2612C
:103DF000A0F80015DFF8840D40F68B11A0F802152D
:103E0000DFF8740D42F22031A0F80215DFF86C0DD6
:103E100040F65C31A0F80415DFF85C0D42F29061C9
:103E2000A0F80415DFF8540D40F6E641A0F8061599
:103E3000DFF8440D42F60E11A0F80615DFF83C0D30
:103E400040F61E61A0F80815DFF82C0D42F6882117
:103E5000A0F80815DFF8240D40F6FE61A0F80A1559
:103E6000DFF8140D42F6F621A0F80A15DFF80C0D64
:103E700040F67F71A0F80C15DFF8FC0C42F65621D5
:103E8000A0F80C15DFF8F40C40F69E71A0F80E15A2
:103E9000DFF8E40C42F6AA01A0F80E15DFF8DC0CFE
:103EA00040F65B71A0F81015DFF8CC0C42F2FF5120
:103EB000A0F81015DFF8C40C40F6B761A0F8121591
:103EC000DFF8B40C42F26321A0F81215DFF8AC0C55
:103ED00040F6B651A0F81415DFF89C0C41F6EF51EE
:103EE000A0F81415DFF8940C40F65F41A0F8161501
:103EF000DFF8840C41F6BF01A0F81615DFF87C0C42
:103F000040F6B921A0F81815DFF86C0C41F2F22147
:103F1000A0F81815DFF8640C40F6D101A0F81A15C6
:103F2000DFF8540C40F6AE41A0F81A15DFF84C0C3F
:103F30004FF4D661A0F81C15DFF83C0C40F2196173
:103F4000A0F81C15DFF8340C40F26641A0F81E15ED
:103F5000DFF8240C7FF09F01A0F81E15DFF81C0C81
:103F600040F2FF11A0F82015DFF80C0CDFF8101C50
:103F7000A0F82015DFF8040C7FF07201A0F82215DC
:103F8000DFF8F40BDFF8FC1BA0F82215DFF8EC0BD0
:103F9000DFF8F41BA0F82415DFF8DC0BDFF8EC1BCE
:103FA000A0F82415DFF8D40BDFF8E41BA0F82615E1
:103FB000DFF8C40BDFF8DC1BA0F82615DFF8BC0B1C
:103FC000DFF8D41BA0F82815DFF8AC0BDFF8CC1B0A
:103FD000A0F82815DFF8A40BDFF8C41BA0F82A15F9
:103FE000DFF8940BDFF8BC1BA0F82A15DFF88C0B68
:103FF000DFF8B41BA0F82C15DFF87C0BDFF8AC1B46
:10400000A0F82C15DFF8740BDFF8A41BA0F82E1510
:10401000DFF8640BDFF89C1BA0F82E15DFF85C0BB3
:10402000DFF8941BA0F83015DFF84C0BDFF88C1B81
:10403000A0F83015DFF8440BDFF8841BA0F8321528
:10404000DFF8340BDFF87C1BA0F83215DFF82C0BFF
:10405000DFF8741BA0F83415DFF81C0BDFF86C1BBD
:10406000A0F83415DFF8140BDFF8641BA0F8361540
:10407000DFF8040BDFF85C1BA0F83615DFF8FC0A4C
:10408000DFF8541BA0F83815DFF8EC0ADFF84C1BFA
:10409000A0F83815DFF8E40ADFF8441BA0F83A1559
:1040A000DFF8D40ADFF83C1BA0F83A15DFF8CC0A99
:1040B000DFF8341BA0F83C15DFF8BC0ADFF82C1B36
:1040C000A0F83C15DFF8B40ADFF8241BA0F83E1571
:1040D000DFF8A40ADFF81C1BA0F83E15DFF89C0AE5
:1040E000DFF8141BA0F84015DFF88C0ADFF80C1B72
:1040F000A0F84015DFF8840A7FF40D61A0F842159E
:10410000DFF8740ADFF8F81AA0F84215DFF86C0A35
:10411000DFF8F01AA0F84415DFF85C0A7FF4C361F9
:10412000A0F84415DFF8540ADFF8DC1AA0F84615A9
:10413000DFF8440AA021A0F84615DFF8400A7FF412
:10414000FF71A0F84815DFF8300A40F25771A0F867
:104150004815DFF8280A7321A0F84A15DFF8180A75
:1041600040F6DF51A0F84A15DFF8100A40F2E321CB
:10417000A0F84C15DFF8000A41F21041A0F84C15E8
:10418000DFF8F8094FF4A861A0F84E15DFF8E80948
:1041900041F6C211A0F84E15DFF8E00940F27D713A
:1041A000A0F85015DFF8D00941F6D261A0F85015FB
:1041B000DFF8C80940F68B11A0F85215DFF8B809EE
:1041C00042F22031A0F85215DFF8B00940F65C3118
:1041D000A0F85415DFF8A00942F29061A0F8541538
:1041E000DFF8980940F6E641A0F85615DFF888098F
:1041F00042F60E11A0F85615DFF8800940F61E6150
:10420000A0F85815DFF8700942F68821A0F8581573
:10421000DFF8680940F6FE61A0F85A15DFF8580982
:1042200042F6F621A0F85A15DFF8500940F67F71E2
:10423000A0F85C15DFF8400942F65621A0F85C159D
:10424000DFF8380940F69E71A0F85E15DFF82809FE
:1042500042F6AA01A0F85E15DFF8200940F65B716E
:10426000A0F86015DFF8100942F2FF51A0F86015C0
:10427000DFF8080940F6B761A0F86215DFF8F80822
:1042800042F26321A0F86215DFF8F00840F6B6515B
:10429000A0F86415DFF8E00841F6EF51A0F86415C6
:1042A000DFF8D80840F65F41A0F86615DFF8C808C7
:1042B00041F6BF01A0F86615DFF8C00840F6B92145
:1042C000A0F86815DFF8B00841F2F221A0F86815EF
:1042D000DFF8A80840F6D101A0F86A15DFF89808C1
:1042E00040F6AE41A0F86A15DFF890084FF4D661A9
:1042F000A0F86C15DFF8800840F21961A0F86C1581
:10430000DFF8780840F26641A0F86E15DFF868081B
:104310007FF09F01A0F86E15DFF8600840F2FF11F2
:10432000A0F87015DFF85008DFF85418A0F87015E1
:10433000DFF848087FF07201A0F87215DFF838083E
:10434000DFF84018A0F87215DFF83008DFF83818E9
:10435000A0F87415DFF82008DFF83018A0F87415FD
:10436000DFF81808DFF82818A0F87615DFF8080835
:10437000DFF82018A0F87615DFF80008DFF8181825
:10438000A0F87815DFF8F007DFF81018A0F8781516
:10439000DFF8E807DFF80818A0F87A15DFF8D80783
:1043A000DFF80018A0F87A15DFF8D007DFF8F81763
:1043B000A0F87C15DFF8C007DFF8F017A0F87C152F
:1043C000DFF8B807DFF8E817A0F87E15DFF8A807D0
:1043D000DFF8E017A0F87E15DFF8A007DFF8D817A0
:1043E000A0F88015DFF89007DFF8D017A0F8801547
:1043F000DFF88807DFF8C817A0F88215DFF878071C
:10440000DFF8C017A0F88215DFF87007DFF8B817DB
:10441000A0F88415DFF86007DFF8B017A0F884155E
:10442000DFF85807DFF8A817A0F88615DFF8480767
:10443000DFF8A017A0F88615DFF84007DFF8981717
:10444000A0F88815DFF83007DFF89017A0F8881576
:10445000DFF82807DFF88817A0F88A15DFF81807B3
:10446000DFF88017A0F88A15DFF81007DFF8781753
:10447000A0F88C15DFF80007DFF87017A0F88C158E
:10448000DFF8F806DFF86817A0F88E15DFF8E80601
:10449000DFF86017A0F88E15DFF8E006DFF8581790
:1044A000A0F89015DFF8D006DFF85017A0F89015A7
:1044B000DFF8C8067FF40D61A0F89215DFF8B806A2
:1044C000DFF83C17A0F89215DFF8B006DFF83417D4
:1044D000A0F89415DFF8A0067FF4C361A0F8941546
:1044E000DFF89806DFF82017A0F89615DFF88806A1
:1044F000A021A0F89615DFF884067FF4FF71A0F8DC
:104500009815DFF8740640F25771A0F89815DFF897
:104510006C067321A0F89A15DFF85C0640F6DF51AF
:10452000A0F89A15DFF8540640F2E321A0F89C1594
:10453000DFF8440641F21041A0F89C15DFF83C0674
:104540004FF4A861A0F89E15DFF82C0641F6C211C1
:10455000A0F89E15DFF8240640F27D71A0F8A015A2
:10456000DFF8140641F6D261A0F8A015DFF80C06BA
:1045700040F68B11A0F8A215DFF8FC0542F22031BD
:10458000A0F8A215DFF8F40540F65C31A0F8A415F8
:10459000DFF8E40542F29061A0F8A415DFF8DC052D
:1045A00040F6E641A0F8A615DFF8CC0542F60E115C
:1045B000A0F8A615DFF8C40540F61E61A0F8A815FE
:1045C000DFF8B40542F68821A0F8A815DFF8AC059D
:1045D00040F6FE61A0F8AA15DFF89C0542F6F62128
:1045E000A0F8AA15DFF8940540F67F71A0F8AC1585
:1045F000DFF8840542F65621A0F8AC15DFF87C05FB
:1046000040F69E71A0F8AE15DFF86C0542F6AA01DF
:10461000A0F8AE15DFF8640540F65B71A0F8B015A0
:10462000DFF8540542F2FF51A0F8B015DFF84C0551
:1046300040F6B761A0F8B215DFF83C0542F26321FD
:10464000A0F8B215DFF8340540F6B651A0F8B4155D
:10465000DFF8240541F6EF51A0F8B415DFF81C058A
:1046600040F65F41A0F8B615DFF80C0541F6BF0132
:10467000A0F8B615DFF8040540F6B921A0F8B81582
:10468000DFF8F40441F2F221A0F8B815DFF8EC04E9
:1046900040F6D101A0F8BA15DFF8DC0440F6AE41CF
:1046A000A0F8BA15DFF8D4044FF4D661A0F8BC1511
:1046B000DFF8C40440F21961A0F8BC15DFF8BC04AF
:1046C00040F26641A0F8BE15DFF8AC047FF09F0110
:1046D000A0F8BE15DFF8A40440F2FF11A0F8C01541
:1046E000DFF89404DFF89814A0F8C015DFF88C0404
:1046F0007FF07201A0F8C215DFF87C04DFF88414A3
:10470000A0F8C215DFF87404DFF87C14A0F8C41513
:10471000DFF86404DFF87414A0F8C415DFF85C0453
:10472000DFF86C14A0F8C615DFF84C04DFF8641449
:10473000A0F8C615DFF84404DFF85C14A0F8C8152B
:10474000DFF83404DFF85414A0F8C815DFF82C049F
:10475000DFF84C14A0F8CA15DFF81C04DFF8441485
:10476000A0F8CA15DFF81404DFF83C14A0F8CC1543
:10477000DFF80404DFF83414A0F8CC15DFF8FC03EC
:10478000DFF82C14A0F8CE15DFF8EC03DFF82414C2
:10479000A0F8CE15DFF8E403DFF81C14A0F8D0155C
:1047A000DFF8D403DFF81414A0F8D015DFF8CC0339
:1047B000DFF80C14A0F8D215DFF8BC03DFF80414FE
:1047C000A0F8D215DFF8B403DFF8FC13A0F8D41575
:1047D000DFF8A403DFF8F413A0F8D415DFF89C0386
:1047E000DFF8EC13A0F8D615DFF88C03DFF8E4133C
:1047F000A0F8D615DFF88403DFF8DC13A0F8D8158D
:10480000DFF87403DFF8D413A0F8D815DFF86C03D1
:10481000DFF8CC13A0F8DA15DFF85C03DFF8C41377
:10482000A0F8DA15DFF85403DFF8BC13A0F8DC15A4
:10483000DFF84403DFF8B413A0F8DC15DFF83C031D
:10484000DFF8AC13A0F8DE15DFF82C03DFF8A413B3
:10485000A0F8DE15DFF82403DFF89C13A0F8E015BC
:10486000DFF81403DFF89413A0F8E015DFF80C0369
:104870007FF40D61A0F8E215DFF8FC02DFF8801389
:10488000A0F8E215BD48DFF87C13A0F8E415BA489B
:104890007FF4C361A0F8E415B848DFF86C13A0F802
:1048A000E615B548A021A0F8E615B4487FF4FF71DD
:1048B000A0F8E815B04840F25771A0F8E815AF48E5
:1048C0007321A0F8EA15AC4840F6DF51A0F8EA15CC
:1048D000AA4840F2E321A0F8EC15A74841F21041A4
:1048E000A0F8EC15A5484FF4A861A0F8EE15A24871
:1048F00041F6C211A0F8EE15A04840F27D71A0F873
:10490000F0159D4841F6D261A0F8F0159B4840F69D
:104910008B11A0F8F215984842F22031A0F8F21558
:10492000964840F65C31A0F8F415934842F2906145
:10493000A0F8F415914840F6E641A0F8F6158E4827
:1049400042F60E11A0F8F6158C4840F61E61A0F84C
:10495000F815894842F68821A0F8F815874840F6EE
:10496000FE61A0F8FA15844842F6F621A0F8FA157F
:10497000824840F67F71A0F8FC157F4842F6562128
:10498000A0F8FC157D4840F69E71A0F8FE157A4807
:1049900042F6AA01A0F8FE15784840F65B71A0F82F
:1049A0000016754842F2FF51A0F80016734840F611
:1049B000B761A0F80216704842F26321A0F802160F
:1049C0006E4840F6B651A0F804166B4841F6EF5118
:1049D000A0F80416694840F65F41A0F8061666483C
:1049E00041F6BF01A0F80616644840F6B921A0F8C8
:1049F0000816614841F2F221A0F808165F4840F617
:104A0000D101A0F80A165C4840F6AE41A0F80A169B
:104A10005A484FF4D661A0F80C16574840F2196175
:104A2000A0F80C16554840F26641A0F80E16524800
:104A30007FF09F01A0F80E16504840F2FF11A0F839
:104A400010164D484E49A0F810164C487FF07201E0
:104A5000A0F8121648484B49A0F8121647484A4990
:104A6000A0F8141644484949A0F814164348484988
:104A7000A0F8161640484749A0F816163F48464980
:104A8000A0F818163C484549A0F818163B48444978
:104A9000A0F81A1638484349A0F81A163748424970
:104AA000A0F81C1634484149A0F81C163348404968
:104AB000A0F81E1630483F49A0F81E162F483E4960
:104AC000A0F820162C483D49A0F820162B483C4958
:104AD000A0F8221628483B49A0F8221627483A4950
:104AE000A0F8241624483949A0F824162348384948
:104AF000A0F8261620483749A0F826161F48364940
:104B0000A0F828161C483549A0F828161B48344937
:104B1000A0F82A1618483349A0F82A16174832492F
:104B2000A0F82C1614483149A0F82C161348304927
:104B3000A0F82E1610482F49A0F82E160F482E491F
:104B4000A0F830160C482D49A0F830160B487FF419
:104B50000D61A0F8321608482949A0F83216074816
:104B60002849A0F8341604487FF4C361A0F834162D
:104B7000024825494AE000BF081D0020E800002047
:104B8000A9F8FFFF21F2FFFF1DFDFFFFF0EBFFFF84
:104B9000C0FAFFFF3EE6FFFF83F8FFFF2EE1FFFFB5
:104BA00075F6FFFFE0DCFFFFA4F4FFFF70D9FFFF05
:104BB0001AF3FFFFF2D6FFFFE2F1FFFF78D5FFFF08
:104BC00002F1FFFF0AD5FFFF81F0FFFFAAD5FFFF2B
:104BD00062F0FFFF56D7FFFFA5F0FFFF01DAFFFFEE
:104BE00049F1FFFF9DDDFFFF4AF2FFFF11E2FFFFEA
:104BF000A1F3FFFF41E7FFFF47F5FFFF0EEDFFFFCA
:104C000052F3FFFF50F9FFFF9AFBFFFFA0F83616A3
:104C1000DFF8100EA021A0F83616DFF80C0E7FF496
:104C2000FF71A0F83816DFF8FC0D40F25771A0F8BC
:104C30003816DFF8F40D7321A0F83A16DFF8E40D0A
:104C400040F6DF51A0F83A16DFF8DC0D40F2E32120
:104C5000A0F83C16DFF8CC0D41F21041A0F83C164C
:104C6000DFF8C40D4FF4A861A0F83E16DFF8B40DCC
:104C700041F6C211A0F83E16DFF8AC0D40F27D718E
:104C8000A0F84016DFF89C0D41F6D261A0F840165E
:104C9000DFF8940D40F68B11A0F84216DFF8840D72
:104CA00042F22031A0F84216DFF87C0D40F65C316C
:104CB000A0F84416DFF86C0D42F29061A0F844169B
:104CC000DFF8640D40F6E641A0F84616DFF8540D13
:104CD00042F60E11A0F84616DFF84C0D40F61E61A4
:104CE000A0F84816DFF83C0D42F68821A0F84816D7
:104CF000DFF8340D40F6FE61A0F84A16DFF8240D07
:104D000042F6F621A0F84A16DFF81C0D40F67F7136
:104D1000A0F84C16DFF80C0D42F65621A0F84C1600
:104D2000DFF8040D40F69E71A0F84E16DFF8F40C83
:104D300042F6AA01A0F84E16DFF8EC0C40F65B71C3
:104D4000A0F85016DFF8DC0C42F2FF51A0F8501624
:104D5000DFF8D40C40F6B761A0F85216DFF8C40CA7
:104D600042F26321A0F85216DFF8BC0C40F6B651AF
:104D7000A0F85416DFF8AC0C41F6EF51A0F8541629
:104D8000DFF8A40C40F65F41A0F85616DFF8940C4B
:104D900041F6BF01A0F85616DFF88C0C40F6B92199
:104DA000A0F85816DFF87C0C41F2F221A0F8581652
:104DB000DFF8740C40F6D101A0F85A16DFF8640C45
:104DC00040F6AE41A0F85A16DFF85C0C4FF4D661FD
:104DD000A0F85C16DFF84C0C40F21961A0F85C16E4
:104DE000DFF8440C40F26641A0F85E16DFF8340CA0
:104DF0007FF09F01A0F85E16DFF82C0C40F2FF1147
:104E0000A0F86016DFF81C0CDFF8201CA0F8601674
:104E1000DFF8140C7FF07201A0F86216DFF8040CC2
:104E2000DFF80C1CA0F86216DFF8FC0BDFF8041C9E
:104E3000A0F86416DFF8EC0BDFF8FC1BA0F8641692
:104E4000DFF8E40BDFF8F41BA0F86616DFF8D40BEC
:104E5000DFF8EC1BA0F86616DFF8CC0BDFF8E41BDC
:104E6000A0F86816DFF8BC0BDFF8DC1BA0F86816AA
:104E7000DFF8B40BDFF8D41BA0F86A16DFF8A40B38
:104E8000DFF8CC1BA0F86A16DFF89C0BDFF8C41B18
:104E9000A0F86C16DFF88C0BDFF8BC1BA0F86C16C2
:104EA000DFF8840BDFF8B41BA0F86E16DFF8740B84
:104EB000DFF8AC1BA0F86E16DFF86C0BDFF8A41B54
:104EC000A0F87016DFF85C0BDFF89C1BA0F87016DA
:104ED000DFF8540BDFF8941BA0F87216DFF8440BD0
:104EE000DFF88C1BA0F87216DFF83C0BDFF8841B90
:104EF000A0F87416DFF82C0BDFF87C1BA0F87416F2
:104F0000DFF8240BDFF8741BA0F87616DFF8140B1B
:104F1000DFF86C1BA0F87616DFF80C0BDFF8641BCB
:104F2000A0F87816DFF8FC0ADFF85C1BA0F878160A
:104F3000DFF8F40ADFF8541BA0F87A16DFF8E40A69
:104F4000DFF84C1BA0F87A16DFF8DC0ADFF8441B08
:104F5000A0F87C16DFF8CC0ADFF8A01EA0F87C16BB
:104F6000DFF8C40ADFF8981EA0F87E16DFF8B40A4E
:104F7000DFF8901EA0F87E16DFF8AC0ADFF8981E66
:104F8000A0F88016DFF89C0ADFF8901EA0F88016C3
:104F9000DFF8940A7FF40D61A0F88216DFF8840A26
:104FA000DFF87C1EA0F88216DFF87C0ADFF8741E9A
:104FB000A0F88416DFF86C0A7FF4C361A0F88416A9
:104FC000DFF8640ADFF8601EA0F88616DFF8540ADE
:104FD000A021A0F88616DFF8500A7FF4FF71A0F830
:104FE0008816DFF8400A40F25771A0F88816DFF8FB
:104FF000380A7321A0F88A16DFF8280A40F6DF5134
:10500000A0F88A16DFF8200A40F2E321A0F88C16F7
:10501000DFF8100A41F21041A0F88C16DFF8080AF8
:105020004FF4A861A0F88E16DFF8F80941F6C21116
:10503000A0F88E16DFF8F00940F27D71A0F8901606
:10504000DFF8E00941F6D261A0F89016DFF8D80940
:1050500040F68B11A0F89216DFF8C80942F2203111
:10506000A0F89216DFF8C00940F65C31A0F894165B
:10507000DFF8B00942F29061A0F89416DFF8A809B1
:1050800040F6E641A0F89616DFF8980942F60E11B0
:10509000A0F89616DFF8900940F61E61A0F8981661
:1050A000DFF8800942F68821A0F89816DFF8780921
:1050B00040F6FE61A0F89A16DFF8680942F6F6217C
:1050C000A0F89A16DFF8600940F67F71A0F89C16E8
:1050D000DFF8500942F65621A0F89C16DFF848097F
:1050E00040F69E71A0F89E16DFF8380942F6AA0134
:1050F000A0F89E16DFF8300940F65B71A0F8A01604
:10510000DFF8200942F2FF51A0F8A016DFF81809D5
:1051100040F6B761A0F8A216DFF8080942F2632151
:10512000A0F8A216DFF8000940F6B651A0F8A416C0
:10513000DFF8F00841F6EF51A0F8A416DFF8E80810
:1051400040F65F41A0F8A616DFF8D80841F6BF0187
:10515000A0F8A616DFF8D00840F6B921A0F8A816E6
:10516000DFF8C00841F2F221A0F8A816DFF8B8086D
:1051700040F6D101A0F8AA16DFF8A80840F6AE4123
:10518000A0F8AA16DFF8A0084FF4D661A0F8AC1674
:10519000DFF8900840F21961A0F8AC16DFF8880833
:1051A00040F26641A0F8AE16DFF878087FF09F0164
:1051B000A0F8AE16DFF8700840F2FF11A0F8B016A4
:1051C000DFF86008DFF86418A0F8B016DFF85808B8
:1051D0007FF07201A0F8B216DFF84808DFF8501827
:1051E000A0F8B216DFF84008DFF84818A0F8B416A7
:1051F000DFF83008DFF84018A0F8B416DFF8280808
:10520000DFF83818A0F8B616DFF81808DFF83018FD
:10521000A0F8B616DFF81008DFF82818A0F8B816BE
:10522000DFF80008DFF82018A0F8B816DFF8F80754
:10523000DFF81818A0F8BA16DFF8E807DFF810183A
:10524000A0F8BA16DFF8E007DFF80818A0F8BC16D7
:10525000DFF8D007DFF80018A0F8BC16DFF8C807A1
:10526000DFF8F817A0F8BE16DFF8B807DFF8F01778
:10527000A0F8BE16DFF8B007DFF8E817A0F8C016F0
:10528000DFF8A007DFF8E017A0F8C016DFF89807EE
:10529000DFF8D817A0F8C216DFF88807DFF8D017B4
:1052A000A0F8C216DFF88007DFF8C817A0F8C41608
:1052B000DFF87007DFF8C017A0F8C416DFF868073A
:1052C000DFF8B817A0F8C616DFF85807DFF8B017F0
:1052D000A0F8C616DFF85007DFF8A817A0F8C81620
:1052E000DFF84007DFF8A017A0F8C816DFF8380786
:1052F000DFF89817A0F8CA16DFF82807DFF890172C
:10530000A0F8CA16DFF82007DFF88817A0F8CC1637
:10531000DFF81007DFF8E41AA0F8CC16DFF808076A
:10532000DFF8DC1AA0F8CE16DFF8F806DFF8D41A9A
:10533000A0F8CE16DFF8F006DFF8DC1AA0F8D016D9
:10534000DFF8E006DFF8D41AA0F8D016DFF8D806A8
:105350007FF40D61A0F8D216DFF8C806DFF8C01A96
:10536000A0F8D216DFF8C006DFF8B81AA0F8D416F5
:10537000DFF8B0067FF4C361A0F8D416DFF8A80602
:10538000DFF8A41AA0F8D616DFF89806A021A0F836
:10539000D616DFF894067FF4FF71A0F8D816DFF870
:1053A000840640F25771A0F8D816DFF87C06732106
:1053B000A0F8DA16DFF86C0640F6DF51A0F8DA162E
:1053C000DFF8640640F2E321A0F8DC16DFF85406AB
:1053D00041F21041A0F8DC16DFF84C064FF4A8614A
:1053E000A0F8DE16DFF83C0641F6C211A0F8DE1682
:1053F000DFF8340640F27D71A0F8E016DFF82406ED
:1054000041F6D261A0F8E016DFF81C0640F68B11D9
:10541000A0F8E216DFF80C0642F22031A0F8E216FE
:10542000DFF8040640F65C31A0F8E416DFF8F40576
:1054300042F29061A0F8E416DFF8EC0540F6E64190
:10544000A0F8E616DFF8DC0542F60E11A0F8E61625
:10545000DFF8D40540F61E61A0F8E816DFF8C405B1
:1054600042F68821A0F8E816DFF8BC0540F6FE6198
:10547000A0F8EA16DFF8AC0542F6F621A0F8EA1625
:10548000DFF8A40540F67F71A0F8EC16DFF894056C
:1054900042F65621A0F8EC16DFF88C0540F69E7116
:1054A000A0F8EE16DFF87C0542F6AA01A0F8EE1689
:1054B000DFF8740540F65B71A0F8F016DFF86405BC
:1054C00042F2FF51A0F8F016DFF85C0540F6B76134
:1054D000A0F8F216DFF84C0542F26321A0F8F216AC
:1054E000DFF8440540F6B651A0F8F416DFF83405AD
:1054F00041F6EF51A0F8F416DFF82C0540F65F41B5
:10550000A0F8F616DFF81C0541F6BF01A0F8F61664
:10551000DFF8140540F6B921A0F8F816DFF8040505
:1055200041F2F221A0F8F816DFF8FC0440F6D101B0
:10553000A0F8FA16DFF8EC0440F6AE41A0F8FA162F
:10554000DFF8E4044FF4D661A0F8FC16DFF8D404C9
:1055500040F21961A0F8FC16DFF8CC0440F2664175
:10556000A0F8FE16DFF8BC047FF09F01A0F8FE163D
:10557000DFF8B40440F2FF11A0F80017DFF8A4042C
:10558000DFF8A814A0F80017DFF89C047FF0720180
:10559000A0F80217DFF88C04DFF89414A0F80217C3
:1055A000DFF88404DFF88C14A0F80417DFF8740423
:1055B000DFF88414A0F80417DFF86C04DFF87C141B
:1055C000A0F80617DFF85C04DFF87414A0F80617DB
:1055D000DFF85404DFF86C14A0F80817DFF844046F
:1055E000DFF86414A0F80817DFF83C04DFF85C1457
:1055F000A0F80A17DFF82C04DFF85414A0F80A17F3
:10560000DFF82404DFF84C14A0F80C17DFF81404BA
:10561000DFF84414A0F80C17DFF80C04DFF83C1492
:10562000A0F80E17DFF8FC03DFF83414A0F80E170B
:10563000DFF8F403DFF82C14A0F81017DFF8E40308
:10564000DFF82414A0F81017DFF8DC03DFF81C14CF
:10565000A0F81217DFF8CC03DFF81414A0F8121723
:10566000DFF8C403DFF80C14A0F81417DFF8B40354
:10567000DFF80414A0F81417DFF8AC03DFF8FC130C
:10568000A0F81617DFF89C03DFF8F413A0F816173C
:10569000DFF89403DFF8EC13A0F81817DFF88403A1
:1056A000DFF8E413A0F81817DFF87C03DFF8DC1349
:1056B000A0F81A17DFF86C03DFF8D413A0F81A1754
:1056C000DFF86403DFF8CC13A0F81C17DFF85403ED
:1056D000DFF82817A0F81C17DFF84C03DFF82017B5
:1056E000A0F81E17DFF83C03DFF81817A0F81E1704
:1056F000DFF83403DFF82017A0F82017DFF82403C1
:10570000DFF81817A0F82017DFF81C037FF40D61ED
:10571000A0F82217DFF80C03DFF80417A0F822170F
:10572000C148DFF80017A0F82417BE487FF4C36112
:10573000A0F82417BC48DFF8F016A0F82617B948DF
:10574000A021A0F82617B8487FF4FF71A0F8281709
:10575000B44840F25771A0F82817B3487321A0F855
:105760002A17B04840F6DF51A0F82A17AE4840F299
:10577000E321A0F82C17AB4841F21041A0F82C17F8
:10578000A9484FF4A861A0F82E17A64841F6C21107
:10579000A0F82E17A44840F27D71A0F83017A14858
:1057A00041F6D261A0F830179F4840F68B11A0F85F
:1057B00032179C4842F22031A0F832179A4840F63E
:1057C0005C31A0F83417974842F29061A0F8341782
:1057D000954840F6E641A0F83617924842F60E1179
:1057E000A0F83617904840F61E61A0F838178D488B
:1057F00042F68821A0F838178B4840F6FE61A0F8E1
:105800003A17884842F6F621A0F83A17864840F63B
:105810007F71A0F83C17834842F65621A0F83C1748
:10582000814840F69E71A0F83E177E4842F6AA01D4
:10583000A0F83E177C4840F65B71A0F84017794805
:1058400042F2FF51A0F84017774840F6B761A0F840
:105850004217744842F26321A0F84217724840F69A
:10586000B651A0F844176F4841F6EF51A0F844171D
:105870006D4840F65F41A0F846176A4841F6BF01FF
:10588000A0F84617684840F6B921A0F848176548BF
:1058900041F2F221A0F84817634840F6D101A0F880
:1058A0004A17604840F6AE41A0F84A175E484FF4E8
:1058B000D661A0F84C175B4840F21961A0F84C176C
:1058C000594840F26641A0F84E1756487FF09F01B4
:1058D000A0F84E17544840F2FF11A0F85017514855
:1058E0005249A0F8501750487FF07201A0F85217A3
:1058F0004C484F49A0F852174B484E49A0F854174E
:1059000048484D49A0F8541747484C49A0F8561745
:1059100044484B49A0F8561743484A49A0F858173D
:1059200040484949A0F858173F484849A0F85A1735
:105930003C484749A0F85A173B484649A0F85C172D
:1059400038484549A0F85C1737484449A0F85E1725
:1059500034484349A0F85E1733484249A0F860171D
:1059600030484149A0F860172F484049A0F8621715
:105970002C483F49A0F862172B483E49A0F864170D
:1059800028483D49A0F8641727483C49A0F8661705
:1059900024483B49A0F8661723483A49A0F86817FD
:1059A00020483949A0F868171F483849A0F86A17F5
:1059B0001C483749A0F86A171B483649A0F86C17ED
:1059C0001848DFF83814A0F86C171748DFF83014BF
:1059D000A0F86E171348DFF82C14A0F86E171248C1
:1059E000DFF83414A0F870170E48DFF83014A0F870
:1059F00070170D487FF40D61A0F872170948DFF8A1
:105A00002014A0F872170848DFF81814A0F87417CB
:105A100004487FF4C361A0F874170348DFF8081442
:105A20003AE000BF081D0020E8000020A9F8FFFFB1
:105A300021F2FFFF1DFDFFFFF0EBFFFFC0FAFFFFAC
:105A40003EE6FFFF83F8FFFF2EE1FFFF75F6FFFF45
:105A5000E0DCFFFFA4F4FFFF70D9FFFF1AF3FFFFA4
:105A6000F2D6FFFFE2F1FFFF78D5FFFF02F1FFFF63
:105A70000AD5FFFF81F0FFFFAAD5FFFF62F0FFFF0D
:105A800056D7FFFFA5F0FFFF01DAFFFF49F1FFFF47
:105A90009DDDFFFF4AF2FFFFA0F87617DFF8380E12
:105AA000A021A0F87617DFF8340E7FF4FF71A0F87C
:105AB0007817DFF8240E40F25771A0F87817DFF856
:105AC0001C0E7321A0F87A17DFF80C0E40F6DF5198
:105AD000A0F87A17DFF8040E40F2E321A0F87C1753
